{"contracts/MultiSigWallet.sol":{"MultiSigWallet":{"abi":[{"inputs":[{"internalType":"address[]","name":"_owners","type":"address[]"},{"internalType":"uint256","name":"_required","type":"uint256"}],"stateMutability":"nonpayable","type":"constructor"},{"anonymous":false,"inputs":[{"indexed":true,"internalType":"uint256","name":"txId","type":"uint256"},{"indexed":true,"internalType":"address","name":"owner","type":"address"}],"name":"ConfirmationRevoked","type":"event"},{"anonymous":false,"inputs":[{"indexed":true,"internalType":"address","name":"sender","type":"address"},{"indexed":false,"internalType":"uint256","name":"amount","type":"uint256"},{"indexed":false,"internalType":"uint256","name":"balance","type":"uint256"}],"name":"Deposit","type":"event"},{"anonymous":false,"inputs":[{"indexed":true,"internalType":"address","name":"newOwner","type":"address"}],"name":"OwnerAdded","type":"event"},{"anonymous":false,"inputs":[{"indexed":true,"internalType":"address","name":"removedOwner","type":"address"}],"name":"OwnerRemoved","type":"event"},{"anonymous":false,"inputs":[{"indexed":false,"internalType":"uint256","name":"newRequired","type":"uint256"}],"name":"RequirementChanged","type":"event"},{"anonymous":false,"inputs":[{"indexed":true,"internalType":"uint256","name":"txId","type":"uint256"},{"indexed":true,"internalType":"address","name":"owner","type":"address"}],"name":"TransactionConfirmed","type":"event"},{"anonymous":false,"inputs":[{"indexed":true,"internalType":"uint256","name":"txId","type":"uint256"},{"indexed":true,"internalType":"address","name":"executor","type":"address"}],"name":"TransactionExecuted","type":"event"},{"anonymous":false,"inputs":[{"indexed":true,"internalType":"uint256","name":"txId","type":"uint256"},{"indexed":true,"internalType":"address","name":"proposer","type":"address"},{"indexed":true,"internalType":"address","name":"to","type":"address"},{"indexed":false,"internalType":"uint256","name":"value","type":"uint256"},{"indexed":false,"internalType":"bytes","name":"data","type":"bytes"}],"name":"TransactionSubmitted","type":"event"},{"inputs":[{"internalType":"address","name":"_owner","type":"address"}],"name":"addOwner","outputs":[],"stateMutability":"nonpayable","type":"function"},{"inputs":[{"internalType":"uint256","name":"_required","type":"uint256"}],"name":"changeRequirement","outputs":[],"stateMutability":"nonpayable","type":"function"},{"inputs":[{"internalType":"uint256","name":"_txId","type":"uint256"}],"name":"confirmTransaction","outputs":[],"stateMutability":"nonpayable","type":"function"},{"inputs":[{"internalType":"uint256","name":"_txId","type":"uint256"}],"name":"executeTransaction","outputs":[],"stateMutability":"nonpayable","type":"function"},{"inputs":[],"name":"getOwners","outputs":[{"internalType":"address[]","name":"","type":"address[]"}],"stateMutability":"view","type":"function"},{"inputs":[{"internalType":"uint256","name":"_txId","type":"uint256"}],"name":"getTransaction","outputs":[{"internalType":"address","name":"to","type":"address"},{"internalType":"uint256","name":"value","type":"uint256"},{"internalType":"bytes","name":"data","type":"bytes"},{"internalType":"bool","name":"executed","type":"bool"},{"internalType":"uint256","name":"confirmationCount","type":"uint256"}],"stateMutability":"view","type":"function"},{"inputs":[],"name":"getTransactionCount","outputs":[{"internalType":"uint256","name":"","type":"uint256"}],"stateMutability":"view","type":"function"},{"inputs":[{"internalType":"uint256","name":"","type":"uint256"},{"internalType":"address","name":"","type":"address"}],"name":"isConfirmed","outputs":[{"internalType":"bool","name":"","type":"bool"}],"stateMutability":"view","type":"function"},{"inputs":[{"internalType":"address","name":"","type":"address"}],"name":"isOwner","outputs":[{"internalType":"bool","name":"","type":"bool"}],"stateMutability":"view","type":"function"},{"inputs":[{"internalType":"uint256","name":"","type":"uint256"}],"name":"owners","outputs":[{"internalType":"address","name":"","type":"address"}],"stateMutability":"view","type":"function"},{"inputs":[{"internalType":"address","name":"_owner","type":"address"}],"name":"removeOwner","outputs":[],"stateMutability":"nonpayable","type":"function"},{"inputs":[],"name":"required","outputs":[{"internalType":"uint256","name":"","type":"uint256"}],"stateMutability":"view","type":"function"},{"inputs":[{"internalType":"uint256","name":"_txId","type":"uint256"}],"name":"revokeConfirmation","outputs":[],"stateMutability":"nonpayable","type":"function"},{"inputs":[{"internalType":"address","name":"_to","type":"address"},{"internalType":"uint256","name":"_value","type":"uint256"},{"internalType":"bytes","name":"_data","type":"bytes"}],"name":"submitTransaction","outputs":[{"internalType":"uint256","name":"txId","type":"uint256"}],"stateMutability":"nonpayable","type":"function"},{"inputs":[{"internalType":"uint256","name":"","type":"uint256"}],"name":"transactions","outputs":[{"internalType":"address","name":"to","type":"address"},{"internalType":"uint256","name":"value","type":"uint256"},{"internalType":"bytes","name":"data","type":"bytes"},{"internalType":"bool","name":"executed","type":"bool"},{"internalType":"uint256","name":"confirmationCount","type":"uint256"}],"stateMutability":"view","type":"function"},{"stateMutability":"payable","type":"receive"}],"evm":{"bytecode":{"linkReferences":{},"object":"60806040523480156200001157600080fd5b5060405162001a4038038062001a40833981016040819052620000349162000290565b60008251116200008b5760405162461bcd60e51b815260206004820152601960248201527f4d756c74695369673a206f776e6572732072657175697265640000000000000060448201526064015b60405180910390fd5b6000811180156200009d575081518111155b620000eb5760405162461bcd60e51b815260206004820181905260248201527f4d756c74695369673a20696e76616c696420726571756972656420636f756e74604482015260640162000082565b60005b8251811015620002525760008382815181106200010f576200010f6200036a565b6020026020010151905060006001600160a01b0316816001600160a01b0316036200017d5760405162461bcd60e51b815260206004820152601c60248201527f4d756c74695369673a207a65726f2061646472657373206f776e657200000000604482015260640162000082565b6001600160a01b03811660009081526001602052604090205460ff1615620001e85760405162461bcd60e51b815260206004820152601960248201527f4d756c74695369673a206475706c6963617465206f776e657200000000000000604482015260640162000082565b6001600160a01b031660008181526001602081905260408220805460ff191682179055815480820183559180527f290decd9548b62a8d60345a988386fc84ba6bc95484008f6362f93160ef3e56390910180546001600160a01b03191690921790915501620000ee565b506002555062000380565b634e487b7160e01b600052604160045260246000fd5b80516001600160a01b03811681146200028b57600080fd5b919050565b60008060408385031215620002a457600080fd5b82516001600160401b0380821115620002bc57600080fd5b818501915085601f830112620002d157600080fd5b8151602082821115620002e857620002e86200025d565b8160051b604051601f19603f830116810181811086821117156200031057620003106200025d565b6040529283528183019350848101820192898411156200032f57600080fd5b948201945b838610156200035857620003488662000273565b8552948201949382019362000334565b97909101519698969750505050505050565b634e487b7160e01b600052603260045260246000fd5b6116b080620003906000396000f3fe6080604052600436106100ec5760003560e01c806380f59a651161008a578063c01a8c8411610059578063c01a8c84146102fe578063c64274741461031e578063dc8452cd1461033e578063ee22610b1461035457600080fd5b806380f59a65146102615780639ace38c21461029c578063a0e67e2b146102bc578063ba51a6df146102de57600080fd5b80632e7700f0116100c65780632e7700f0146101b15780632f54bf6e146101d057806333ea3dc8146102105780637065cb481461024157600080fd5b8063025e7c2714610132578063173825d91461016f57806320ea8d861461019157600080fd5b3661012d576040805134815247602082015233917f90890809c654f11d6e72a28fa60149770a0d11ec6c92319d6ceb2bb0a4ea1a15910160405180910390a2005b600080fd5b34801561013e57600080fd5b5061015261014d366004611150565b610374565b6040516001600160a01b0390911681526020015b60405180910390f35b34801561017b57600080fd5b5061018f61018a366004611185565b61039e565b005b34801561019d57600080fd5b5061018f6101ac366004611150565b610622565b3480156101bd57600080fd5b506003545b604051908152602001610166565b3480156101dc57600080fd5b506102006101eb366004611185565b60016020526000908152604090205460ff1681565b6040519015158152602001610166565b34801561021c57600080fd5b5061023061022b366004611150565b6107c6565b6040516101669594939291906111a7565b34801561024d57600080fd5b5061018f61025c366004611185565b6108c1565b34801561026d57600080fd5b5061020061027c366004611223565b600460209081526000928352604080842090915290825290205460ff1681565b3480156102a857600080fd5b506102306102b7366004611150565b610a23565b3480156102c857600080fd5b506102d1610afc565b604051610166919061124f565b3480156102ea57600080fd5b5061018f6102f9366004611150565b610b5e565b34801561030a57600080fd5b5061018f610319366004611150565b610c16565b34801561032a57600080fd5b506101c261033936600461129c565b610dc5565b34801561034a57600080fd5b506101c260025481565b34801561036057600080fd5b5061018f61036f366004611150565b610f32565b6000818154811061038457600080fd5b6000918252602090912001546001600160a01b0316905081565b3330146103c65760405162461bcd60e51b81526004016103bd90611323565b60405180910390fd5b6001600160a01b03811660009081526001602052604090205460ff166104275760405162461bcd60e51b815260206004820152601660248201527526bab63a34a9b4b39d103737ba1030b71037bbb732b960511b60448201526064016103bd565b6000805461043790600190611370565b1161048f5760405162461bcd60e51b815260206004820152602260248201527f4d756c74695369673a2063616e6e6f742072656d6f7665206c617374206f776e60448201526132b960f11b60648201526084016103bd565b6001600160a01b0381166000908152600160205260408120805460ff191690555b6000548110156105a257816001600160a01b0316600082815481106104d7576104d7611389565b6000918252602090912001546001600160a01b03160361059a576000805461050190600190611370565b8154811061051157610511611389565b600091825260208220015481546001600160a01b0390911691908390811061053b5761053b611389565b6000918252602082200180546001600160a01b0319166001600160a01b0393909316929092179091558054806105735761057361139f565b600082815260209020810160001990810180546001600160a01b03191690550190556105a2565b6001016104b0565b5060005460025411156105eb5760005460028190556040519081527facbdb084c721332ac59f9b8e392196c9eb0e4932862da8eb9beaf0dad4f550da9060200160405180910390a15b6040516001600160a01b038216907f58619076adf5bb0943d100ef88d52d7c3fd691b19d3a9071b555b651fbf418da90600090a250565b3360009081526001602052604090205460ff166106515760405162461bcd60e51b81526004016103bd906113b5565b600354819081106106745760405162461bcd60e51b81526004016103bd906113ec565b816003818154811061068857610688611389565b600091825260209091206003600590920201015460ff16156106bc5760405162461bcd60e51b81526004016103bd90611423565b600083815260046020908152604080832033845290915290205460ff166107315760405162461bcd60e51b8152602060048201526024808201527f4d756c74695369673a207478206e6f7420636f6e6669726d6564206279206361604482015263363632b960e11b60648201526084016103bd565b60006003848154811061074657610746611389565b6000918252602080832087845260048083526040808620338752909352918420805460ff1916905560059092029091019081018054919350600192909161078e908490611370565b9091555050604051339085907fdd7f1999a4389ea99f79c84df2162a8e32e72dd35838b19e4094bf0357c1b62e90600090a350505050565b60008060606000806000600387815481106107e3576107e3611389565b6000918252602090912060059091020180546001820154600383015460048401546002850180549596506001600160a01b039094169492939260ff90921691839061082d9061145a565b80601f01602080910402602001604051908101604052809291908181526020018280546108599061145a565b80156108a65780601f1061087b576101008083540402835291602001916108a6565b820191906000526020600020905b81548152906001019060200180831161088957829003601f168201915b50505050509250955095509550955095505091939590929450565b3330146108e05760405162461bcd60e51b81526004016103bd90611323565b6001600160a01b03811661092f5760405162461bcd60e51b81526020600482015260166024820152754d756c74695369673a207a65726f206164647265737360501b60448201526064016103bd565b6001600160a01b03811660009081526001602052604090205460ff16156109985760405162461bcd60e51b815260206004820152601760248201527f4d756c74695369673a20616c7265616479206f776e657200000000000000000060448201526064016103bd565b6001600160a01b0381166000818152600160208190526040808320805460ff191683179055825491820183558280527f290decd9548b62a8d60345a988386fc84ba6bc95484008f6362f93160ef3e56390910180546001600160a01b03191684179055517f994a936646fe87ffe4f1e469d3d6aa417d6b855598397f323de5b449f765f0c39190a250565b60038181548110610a3357600080fd5b60009182526020909120600590910201805460018201546002830180546001600160a01b039093169450909291610a699061145a565b80601f0160208091040260200160405190810160405280929190818152602001828054610a959061145a565b8015610ae25780601f10610ab757610100808354040283529160200191610ae2565b820191906000526020600020905b815481529060010190602001808311610ac557829003601f168201915b505050506003830154600490930154919260ff1691905085565b60606000805480602002602001604051908101604052809291908181526020018280548015610b5457602002820191906000526020600020905b81546001600160a01b03168152600190910190602001808311610b36575b5050505050905090565b333014610b7d5760405162461bcd60e51b81526004016103bd90611323565b600081118015610b8f57506000548111155b610bdb5760405162461bcd60e51b815260206004820152601d60248201527f4d756c74695369673a20696e76616c696420726571756972656d656e7400000060448201526064016103bd565b60028190556040518181527facbdb084c721332ac59f9b8e392196c9eb0e4932862da8eb9beaf0dad4f550da9060200160405180910390a150565b3360009081526001602052604090205460ff16610c455760405162461bcd60e51b81526004016103bd906113b5565b60035481908110610c685760405162461bcd60e51b81526004016103bd906113ec565b8160038181548110610c7c57610c7c611389565b600091825260209091206003600590920201015460ff1615610cb05760405162461bcd60e51b81526004016103bd90611423565b6000838152600460209081526040808320338452909152902054839060ff1615610d2d5760405162461bcd60e51b815260206004820152602860248201527f4d756c74695369673a20747820616c726561647920636f6e6669726d656420626044820152673c9031b0b63632b960c11b60648201526084016103bd565b600060038581548110610d4257610d42611389565b6000918252602080832088845260048083526040808620338752909352918420805460ff191660019081179091556005909302019081018054919450919290610d8c908490611494565b9091555050604051339086907f15c2f311c9e0f53b50388279894aeff029a3457884a6601e924fca879e12adcc90600090a35050505050565b3360009081526001602052604081205460ff16610df45760405162461bcd60e51b81526004016103bd906113b5565b600380549050905060036040518060a00160405280876001600160a01b0316815260200186815260200185858080601f01602080910402602001604051908101604052809392919081815260200183838082843760009201829052509385525050506020808301829052604092830182905284546001808201875595835291819020845160059093020180546001600160a01b0319166001600160a01b03909316929092178255830151938101939093558101519091906002820190610eba908261150e565b50606082015160038201805460ff19169115159190911790556080909101516004909101556040516001600160a01b03861690339083907f2ecf8c4571be1f8a0b1e6feaa711128f3f8038e97869aa59d0f595e21f50eaa090610f22908990899089906115ce565b60405180910390a4949350505050565b3360009081526001602052604090205460ff16610f615760405162461bcd60e51b81526004016103bd906113b5565b60035481908110610f845760405162461bcd60e51b81526004016103bd906113ec565b8160038181548110610f9857610f98611389565b600091825260209091206003600590920201015460ff1615610fcc5760405162461bcd60e51b81526004016103bd90611423565b600060038481548110610fe157610fe1611389565b90600052602060002090600502019050600254816004015410156110525760405162461bcd60e51b815260206004820152602260248201527f4d756c74695369673a206e6f7420656e6f75676820636f6e6669726d6174696f6044820152616e7360f01b60648201526084016103bd565b60038101805460ff191660019081179091558154908201546040516000926001600160a01b03169190611089906002860190611604565b60006040518083038185875af1925050503d80600081146110c6576040519150601f19603f3d011682016040523d82523d6000602084013e6110cb565b606091505b505090508061111c5760405162461bcd60e51b815260206004820152601d60248201527f4d756c74695369673a20747820657865637574696f6e206661696c656400000060448201526064016103bd565b604051339086907fefc13bdcf58f184ea7cae26b499fb33b539e01d0197cea456f3ada289b8cf19b90600090a35050505050565b60006020828403121561116257600080fd5b5035919050565b80356001600160a01b038116811461118057600080fd5b919050565b60006020828403121561119757600080fd5b6111a082611169565b9392505050565b60018060a01b03861681526000602086602084015260a0604084015285518060a085015260005b818110156111ea5787810183015185820160c0015282016111ce565b50600060c0828601015260c0601f19601f83011685010192505050611213606083018515159052565b8260808301529695505050505050565b6000806040838503121561123657600080fd5b8235915061124660208401611169565b90509250929050565b6020808252825182820181905260009190848201906040850190845b818110156112905783516001600160a01b03168352928401929184019160010161126b565b50909695505050505050565b600080600080606085870312156112b257600080fd5b6112bb85611169565b935060208501359250604085013567ffffffffffffffff808211156112df57600080fd5b818701915087601f8301126112f357600080fd5b81358181111561130257600080fd5b88602082850101111561131457600080fd5b95989497505060200194505050565b6020808252601e908201527f4d756c74695369673a2063616c6c6572206973206e6f742077616c6c65740000604082015260600190565b634e487b7160e01b600052601160045260246000fd5b818103818111156113835761138361135a565b92915050565b634e487b7160e01b600052603260045260246000fd5b634e487b7160e01b600052603160045260246000fd5b6020808252601d908201527f4d756c74695369673a2063616c6c6572206973206e6f74206f776e6572000000604082015260600190565b6020808252601b908201527f4d756c74695369673a20747820646f6573206e6f742065786973740000000000604082015260600190565b6020808252601d908201527f4d756c74695369673a20747820616c7265616479206578656375746564000000604082015260600190565b600181811c9082168061146e57607f821691505b60208210810361148e57634e487b7160e01b600052602260045260246000fd5b50919050565b808201808211156113835761138361135a565b634e487b7160e01b600052604160045260246000fd5b601f821115611509576000816000526020600020601f850160051c810160208610156114e65750805b601f850160051c820191505b81811015611505578281556001016114f2565b5050505b505050565b815167ffffffffffffffff811115611528576115286114a7565b61153c81611536845461145a565b846114bd565b602080601f83116001811461157157600084156115595750858301515b600019600386901b1c1916600185901b178555611505565b600085815260208120601f198616915b828110156115a057888601518255948401946001909101908401611581565b50858210156115be5787850151600019600388901b60f8161c191681555b5050505050600190811b01905550565b83815260406020820152816040820152818360608301376000818301606090810191909152601f909201601f1916010192915050565b60008083546116128161145a565b6001828116801561162a576001811461163f5761166e565b60ff198416875282151583028701945061166e565b8760005260208060002060005b858110156116655781548a82015290840190820161164c565b50505082870194505b5092969550505050505056fea2646970667358221220d877386131b6d1f79963ed4f8630d6fd577fc46451c16e4bc62aab51808a6b0c64736f6c63430008180033","opcodes":"PUSH1 0x80 PUSH1 0x40 MSTORE CALLVALUE DUP1 ISZERO PUSH3 0x11 JUMPI PUSH1 0x0 DUP1 REVERT JUMPDEST POP PUSH1 0x40 MLOAD PUSH3 0x1A40 CODESIZE SUB DUP1 PUSH3 0x1A40 DUP4 CODECOPY DUP2 ADD PUSH1 0x40 DUP2 SWAP1 MSTORE PUSH3 0x34 SWAP2 PUSH3 0x290 JUMP JUMPDEST PUSH1 0x0 DUP3 MLOAD GT PUSH3 0x8B JUMPI PUSH1 0x40 MLOAD PUSH3 0x461BCD PUSH1 0xE5 SHL DUP2 MSTORE PUSH1 0x20 PUSH1 0x4 DUP3 ADD MSTORE PUSH1 0x19 PUSH1 0x24 DUP3 ADD MSTORE PUSH32 0x4D756C74695369673A206F776E65727320726571756972656400000000000000 PUSH1 0x44 DUP3 ADD MSTORE PUSH1 0x64 ADD JUMPDEST PUSH1 0x40 MLOAD DUP1 SWAP2 SUB SWAP1 REVERT JUMPDEST PUSH1 0x0 DUP2 GT DUP1 ISZERO PUSH3 0x9D JUMPI POP DUP2 MLOAD DUP2 GT ISZERO JUMPDEST PUSH3 0xEB JUMPI PUSH1 0x40 MLOAD PUSH3 0x461BCD PUSH1 0xE5 SHL DUP2 MSTORE PUSH1 0x20 PUSH1 0x4 DUP3 ADD DUP2 SWAP1 MSTORE PUSH1 0x24 DUP3 ADD MSTORE PUSH32 0x4D756C74695369673A20696E76616C696420726571756972656420636F756E74 PUSH1 0x44 DUP3 ADD MSTORE PUSH1 0x64 ADD PUSH3 0x82 JUMP JUMPDEST PUSH1 0x0 JUMPDEST DUP3 MLOAD DUP2 LT ISZERO PUSH3 0x252 JUMPI PUSH1 0x0 DUP4 DUP3 DUP2 MLOAD DUP2 LT PUSH3 0x10F JUMPI PUSH3 0x10F PUSH3 0x36A JUMP JUMPDEST PUSH1 0x20 MUL PUSH1 0x20 ADD ADD MLOAD SWAP1 POP PUSH1 0x0 PUSH1 0x1 PUSH1 0x1 PUSH1 0xA0 SHL SUB AND DUP2 PUSH1 0x1 PUSH1 0x1 PUSH1 0xA0 SHL SUB AND SUB PUSH3 0x17D JUMPI PUSH1 0x40 MLOAD PUSH3 0x461BCD PUSH1 0xE5 SHL DUP2 MSTORE PUSH1 0x20 PUSH1 0x4 DUP3 ADD MSTORE PUSH1 0x1C PUSH1 0x24 DUP3 ADD MSTORE PUSH32 0x4D756C74695369673A207A65726F2061646472657373206F776E657200000000 PUSH1 0x44 DUP3 ADD MSTORE PUSH1 0x64 ADD PUSH3 0x82 JUMP JUMPDEST PUSH1 0x1 PUSH1 0x1 PUSH1 0xA0 SHL SUB DUP2 AND PUSH1 0x0 SWAP1 DUP2 MSTORE PUSH1 0x1 PUSH1 0x20 MSTORE PUSH1 0x40 SWAP1 KECCAK256 SLOAD PUSH1 0xFF AND ISZERO PUSH3 0x1E8 JUMPI PUSH1 0x40 MLOAD PUSH3 0x461BCD PUSH1 0xE5 SHL DUP2 MSTORE PUSH1 0x20 PUSH1 0x4 DUP3 ADD MSTORE PUSH1 0x19 PUSH1 0x24 DUP3 ADD MSTORE PUSH32 0x4D756C74695369673A206475706C6963617465206F776E657200000000000000 PUSH1 0x44 DUP3 ADD MSTORE PUSH1 0x64 ADD PUSH3 0x82 JUMP JUMPDEST PUSH1 0x1 PUSH1 0x1 PUSH1 0xA0 SHL SUB AND PUSH1 0x0 DUP2 DUP2 MSTORE PUSH1 0x1 PUSH1 0x20 DUP2 SWAP1 MSTORE PUSH1 0x40 DUP3 KECCAK256 DUP1 SLOAD PUSH1 0xFF NOT AND DUP3 OR SWAP1 SSTORE DUP2 SLOAD DUP1 DUP3 ADD DUP4 SSTORE SWAP2 DUP1 MSTORE PUSH32 0x290DECD9548B62A8D60345A988386FC84BA6BC95484008F6362F93160EF3E563 SWAP1 SWAP2 ADD DUP1 SLOAD PUSH1 0x1 PUSH1 0x1 PUSH1 0xA0 SHL SUB NOT AND SWAP1 SWAP3 OR SWAP1 SWAP2 SSTORE ADD PUSH3 0xEE JUMP JUMPDEST POP PUSH1 0x2 SSTORE POP PUSH3 0x380 JUMP JUMPDEST PUSH4 0x4E487B71 PUSH1 0xE0 SHL PUSH1 0x0 MSTORE PUSH1 0x41 PUSH1 0x4 MSTORE PUSH1 0x24 PUSH1 0x0 REVERT JUMPDEST DUP1 MLOAD PUSH1 0x1 PUSH1 0x1 PUSH1 0xA0 SHL SUB DUP2 AND DUP2 EQ PUSH3 0x28B JUMPI PUSH1 0x0 DUP1 REVERT JUMPDEST SWAP2 SWAP1 POP JUMP JUMPDEST PUSH1 0x0 DUP1 PUSH1 0x40 DUP4 DUP6 SUB SLT ISZERO PUSH3 0x2A4 JUMPI PUSH1 0x0 DUP1 REVERT JUMPDEST DUP3 MLOAD PUSH1 0x1 PUSH1 0x1 PUSH1 0x40 SHL SUB DUP1 DUP3 GT ISZERO PUSH3 0x2BC JUMPI PUSH1 0x0 DUP1 REVERT JUMPDEST DUP2 DUP6 ADD SWAP2 POP DUP6 PUSH1 0x1F DUP4 ADD SLT PUSH3 0x2D1 JUMPI PUSH1 0x0 DUP1 REVERT JUMPDEST DUP2 MLOAD PUSH1 0x20 DUP3 DUP3 GT ISZERO PUSH3 0x2E8 JUMPI PUSH3 0x2E8 PUSH3 0x25D JUMP JUMPDEST DUP2 PUSH1 0x5 SHL PUSH1 0x40 MLOAD PUSH1 0x1F NOT PUSH1 0x3F DUP4 ADD AND DUP2 ADD DUP2 DUP2 LT DUP7 DUP3 GT OR ISZERO PUSH3 0x310 JUMPI PUSH3 0x310 PUSH3 0x25D JUMP JUMPDEST PUSH1 0x40 MSTORE SWAP3 DUP4 MSTORE DUP2 DUP4 ADD SWAP4 POP DUP5 DUP2 ADD DUP3 ADD SWAP3 DUP10 DUP5 GT ISZERO PUSH3 0x32F JUMPI PUSH1 0x0 DUP1 REVERT JUMPDEST SWAP5 DUP3 ADD SWAP5 JUMPDEST DUP4 DUP7 LT ISZERO PUSH3 0x358 JUMPI PUSH3 0x348 DUP7 PUSH3 0x273 JUMP JUMPDEST DUP6 MSTORE SWAP5 DUP3 ADD SWAP5 SWAP4 DUP3 ADD SWAP4 PUSH3 0x334 JUMP JUMPDEST SWAP8 SWAP1 SWAP2 ADD MLOAD SWAP7 SWAP9 SWAP7 SWAP8 POP POP POP POP POP POP POP JUMP JUMPDEST PUSH4 0x4E487B71 PUSH1 0xE0 SHL PUSH1 0x0 MSTORE PUSH1 0x32 PUSH1 0x4 MSTORE PUSH1 0x24 PUSH1 0x0 REVERT JUMPDEST PUSH2 0x16B0 DUP1 PUSH3 0x390 PUSH1 0x0 CODECOPY PUSH1 0x0 RETURN INVALID PUSH1 0x80 PUSH1 0x40 MSTORE PUSH1 0x4 CALLDATASIZE LT PUSH2 0xEC JUMPI PUSH1 0x0 CALLDATALOAD PUSH1 0xE0 SHR DUP1 PUSH4 0x80F59A65 GT PUSH2 0x8A JUMPI DUP1 PUSH4 0xC01A8C84 GT PUSH2 0x59 JUMPI DUP1 PUSH4 0xC01A8C84 EQ PUSH2 0x2FE JUMPI DUP1 PUSH4 0xC6427474 EQ PUSH2 0x31E JUMPI DUP1 PUSH4 0xDC8452CD EQ PUSH2 0x33E JUMPI DUP1 PUSH4 0xEE22610B EQ PUSH2 0x354 JUMPI PUSH1 0x0 DUP1 REVERT JUMPDEST DUP1 PUSH4 0x80F59A65 EQ PUSH2 0x261 JUMPI DUP1 PUSH4 0x9ACE38C2 EQ PUSH2 0x29C JUMPI DUP1 PUSH4 0xA0E67E2B EQ PUSH2 0x2BC JUMPI DUP1 PUSH4 0xBA51A6DF EQ PUSH2 0x2DE JUMPI PUSH1 0x0 DUP1 REVERT JUMPDEST DUP1 PUSH4 0x2E7700F0 GT PUSH2 0xC6 JUMPI DUP1 PUSH4 0x2E7700F0 EQ PUSH2 0x1B1 JUMPI DUP1 PUSH4 0x2F54BF6E EQ PUSH2 0x1D0 JUMPI DUP1 PUSH4 0x33EA3DC8 EQ PUSH2 0x210 JUMPI DUP1 PUSH4 0x7065CB48 EQ PUSH2 0x241 JUMPI PUSH1 0x0 DUP1 REVERT JUMPDEST DUP1 PUSH4 0x25E7C27 EQ PUSH2 0x132 JUMPI DUP1 PUSH4 0x173825D9 EQ PUSH2 0x16F JUMPI DUP1 PUSH4 0x20EA8D86 EQ PUSH2 0x191 JUMPI PUSH1 0x0 DUP1 REVERT JUMPDEST CALLDATASIZE PUSH2 0x12D JUMPI PUSH1 0x40 DUP1 MLOAD CALLVALUE DUP2 MSTORE SELFBALANCE PUSH1 0x20 DUP3 ADD MSTORE CALLER SWAP2 PUSH32 0x90890809C654F11D6E72A28FA60149770A0D11EC6C92319D6CEB2BB0A4EA1A15 SWAP2 ADD PUSH1 0x40 MLOAD DUP1 SWAP2 SUB SWAP1 LOG2 STOP JUMPDEST PUSH1 0x0 DUP1 REVERT JUMPDEST CALLVALUE DUP1 ISZERO PUSH2 0x13E JUMPI PUSH1 0x0 DUP1 REVERT JUMPDEST POP PUSH2 0x152 PUSH2 0x14D CALLDATASIZE PUSH1 0x4 PUSH2 0x1150 JUMP JUMPDEST PUSH2 0x374 JUMP JUMPDEST PUSH1 0x40 MLOAD PUSH1 0x1 PUSH1 0x1 PUSH1 0xA0 SHL SUB SWAP1 SWAP2 AND DUP2 MSTORE PUSH1 0x20 ADD JUMPDEST PUSH1 0x40 MLOAD DUP1 SWAP2 SUB SWAP1 RETURN JUMPDEST CALLVALUE DUP1 ISZERO PUSH2 0x17B JUMPI PUSH1 0x0 DUP1 REVERT JUMPDEST POP PUSH2 0x18F PUSH2 0x18A CALLDATASIZE PUSH1 0x4 PUSH2 0x1185 JUMP JUMPDEST PUSH2 0x39E JUMP JUMPDEST STOP JUMPDEST CALLVALUE DUP1 ISZERO PUSH2 0x19D JUMPI PUSH1 0x0 DUP1 REVERT JUMPDEST POP PUSH2 0x18F PUSH2 0x1AC CALLDATASIZE PUSH1 0x4 PUSH2 0x1150 JUMP JUMPDEST PUSH2 0x622 JUMP JUMPDEST CALLVALUE DUP1 ISZERO PUSH2 0x1BD JUMPI PUSH1 0x0 DUP1 REVERT JUMPDEST POP PUSH1 0x3 SLOAD JUMPDEST PUSH1 0x40 MLOAD SWAP1 DUP2 MSTORE PUSH1 0x20 ADD PUSH2 0x166 JUMP JUMPDEST CALLVALUE DUP1 ISZERO PUSH2 0x1DC JUMPI PUSH1 0x0 DUP1 REVERT JUMPDEST POP PUSH2 0x200 PUSH2 0x1EB CALLDATASIZE PUSH1 0x4 PUSH2 0x1185 JUMP JUMPDEST PUSH1 0x1 PUSH1 0x20 MSTORE PUSH1 0x0 SWAP1 DUP2 MSTORE PUSH1 0x40 SWAP1 KECCAK256 SLOAD PUSH1 0xFF AND DUP2 JUMP JUMPDEST PUSH1 0x40 MLOAD SWAP1 ISZERO ISZERO DUP2 MSTORE PUSH1 0x20 ADD PUSH2 0x166 JUMP JUMPDEST CALLVALUE DUP1 ISZERO PUSH2 0x21C JUMPI PUSH1 0x0 DUP1 REVERT JUMPDEST POP PUSH2 0x230 PUSH2 0x22B CALLDATASIZE PUSH1 0x4 PUSH2 0x1150 JUMP JUMPDEST PUSH2 0x7C6 JUMP JUMPDEST PUSH1 0x40 MLOAD PUSH2 0x166 SWAP6 SWAP5 SWAP4 SWAP3 SWAP2 SWAP1 PUSH2 0x11A7 JUMP JUMPDEST CALLVALUE DUP1 ISZERO PUSH2 0x24D JUMPI PUSH1 0x0 DUP1 REVERT JUMPDEST POP PUSH2 0x18F PUSH2 0x25C CALLDATASIZE PUSH1 0x4 PUSH2 0x1185 JUMP JUMPDEST PUSH2 0x8C1 JUMP JUMPDEST CALLVALUE DUP1 ISZERO PUSH2 0x26D JUMPI PUSH1 0x0 DUP1 REVERT JUMPDEST POP PUSH2 0x200 PUSH2 0x27C CALLDATASIZE PUSH1 0x4 PUSH2 0x1223 JUMP JUMPDEST PUSH1 0x4 PUSH1 0x20 SWAP1 DUP2 MSTORE PUSH1 0x0 SWAP3 DUP4 MSTORE PUSH1 0x40 DUP1 DUP5 KECCAK256 SWAP1 SWAP2 MSTORE SWAP1 DUP3 MSTORE SWAP1 KECCAK256 SLOAD PUSH1 0xFF AND DUP2 JUMP JUMPDEST CALLVALUE DUP1 ISZERO PUSH2 0x2A8 JUMPI PUSH1 0x0 DUP1 REVERT JUMPDEST POP PUSH2 0x230 PUSH2 0x2B7 CALLDATASIZE PUSH1 0x4 PUSH2 0x1150 JUMP JUMPDEST PUSH2 0xA23 JUMP JUMPDEST CALLVALUE DUP1 ISZERO PUSH2 0x2C8 JUMPI PUSH1 0x0 DUP1 REVERT JUMPDEST POP PUSH2 0x2D1 PUSH2 0xAFC JUMP JUMPDEST PUSH1 0x40 MLOAD PUSH2 0x166 SWAP2 SWAP1 PUSH2 0x124F JUMP JUMPDEST CALLVALUE DUP1 ISZERO PUSH2 0x2EA JUMPI PUSH1 0x0 DUP1 REVERT JUMPDEST POP PUSH2 0x18F PUSH2 0x2F9 CALLDATASIZE PUSH1 0x4 PUSH2 0x1150 JUMP JUMPDEST PUSH2 0xB5E JUMP JUMPDEST CALLVALUE DUP1 ISZERO PUSH2 0x30A JUMPI PUSH1 0x0 DUP1 REVERT JUMPDEST POP PUSH2 0x18F PUSH2 0x319 CALLDATASIZE PUSH1 0x4 PUSH2 0x1150 JUMP JUMPDEST PUSH2 0xC16 JUMP JUMPDEST CALLVALUE DUP1 ISZERO PUSH2 0x32A JUMPI PUSH1 0x0 DUP1 REVERT JUMPDEST POP PUSH2 0x1C2 PUSH2 0x339 CALLDATASIZE PUSH1 0x4 PUSH2 0x129C JUMP JUMPDEST PUSH2 0xDC5 JUMP JUMPDEST CALLVALUE DUP1 ISZERO PUSH2 0x34A JUMPI PUSH1 0x0 DUP1 REVERT JUMPDEST POP PUSH2 0x1C2 PUSH1 0x2 SLOAD DUP2 JUMP JUMPDEST CALLVALUE DUP1 ISZERO PUSH2 0x360 JUMPI PUSH1 0x0 DUP1 REVERT JUMPDEST POP PUSH2 0x18F PUSH2 0x36F CALLDATASIZE PUSH1 0x4 PUSH2 0x1150 JUMP JUMPDEST PUSH2 0xF32 JUMP JUMPDEST PUSH1 0x0 DUP2 DUP2 SLOAD DUP2 LT PUSH2 0x384 JUMPI PUSH1 0x0 DUP1 REVERT JUMPDEST PUSH1 0x0 SWAP2 DUP3 MSTORE PUSH1 0x20 SWAP1 SWAP2 KECCAK256 ADD SLOAD PUSH1 0x1 PUSH1 0x1 PUSH1 0xA0 SHL SUB AND SWAP1 POP DUP2 JUMP JUMPDEST CALLER ADDRESS EQ PUSH2 0x3C6 JUMPI PUSH1 0x40 MLOAD PUSH3 0x461BCD PUSH1 0xE5 SHL DUP2 MSTORE PUSH1 0x4 ADD PUSH2 0x3BD SWAP1 PUSH2 0x1323 JUMP JUMPDEST PUSH1 0x40 MLOAD DUP1 SWAP2 SUB SWAP1 REVERT JUMPDEST PUSH1 0x1 PUSH1 0x1 PUSH1 0xA0 SHL SUB DUP2 AND PUSH1 0x0 SWAP1 DUP2 MSTORE PUSH1 0x1 PUSH1 0x20 MSTORE PUSH1 0x40 SWAP1 KECCAK256 SLOAD PUSH1 0xFF AND PUSH2 0x427 JUMPI PUSH1 0x40 MLOAD PUSH3 0x461BCD PUSH1 0xE5 SHL DUP2 MSTORE PUSH1 0x20 PUSH1 0x4 DUP3 ADD MSTORE PUSH1 0x16 PUSH1 0x24 DUP3 ADD MSTORE PUSH22 0x26BAB63A34A9B4B39D103737BA1030B71037BBB732B9 PUSH1 0x51 SHL PUSH1 0x44 DUP3 ADD MSTORE PUSH1 0x64 ADD PUSH2 0x3BD JUMP JUMPDEST PUSH1 0x0 DUP1 SLOAD PUSH2 0x437 SWAP1 PUSH1 0x1 SWAP1 PUSH2 0x1370 JUMP JUMPDEST GT PUSH2 0x48F JUMPI PUSH1 0x40 MLOAD PUSH3 0x461BCD PUSH1 0xE5 SHL DUP2 MSTORE PUSH1 0x20 PUSH1 0x4 DUP3 ADD MSTORE PUSH1 0x22 PUSH1 0x24 DUP3 ADD MSTORE PUSH32 0x4D756C74695369673A2063616E6E6F742072656D6F7665206C617374206F776E PUSH1 0x44 DUP3 ADD MSTORE PUSH2 0x32B9 PUSH1 0xF1 SHL PUSH1 0x64 DUP3 ADD MSTORE PUSH1 0x84 ADD PUSH2 0x3BD JUMP JUMPDEST PUSH1 0x1 PUSH1 0x1 PUSH1 0xA0 SHL SUB DUP2 AND PUSH1 0x0 SWAP1 DUP2 MSTORE PUSH1 0x1 PUSH1 0x20 MSTORE PUSH1 0x40 DUP2 KECCAK256 DUP1 SLOAD PUSH1 0xFF NOT AND SWAP1 SSTORE JUMPDEST PUSH1 0x0 SLOAD DUP2 LT ISZERO PUSH2 0x5A2 JUMPI DUP2 PUSH1 0x1 PUSH1 0x1 PUSH1 0xA0 SHL SUB AND PUSH1 0x0 DUP3 DUP2 SLOAD DUP2 LT PUSH2 0x4D7 JUMPI PUSH2 0x4D7 PUSH2 0x1389 JUMP JUMPDEST PUSH1 0x0 SWAP2 DUP3 MSTORE PUSH1 0x20 SWAP1 SWAP2 KECCAK256 ADD SLOAD PUSH1 0x1 PUSH1 0x1 PUSH1 0xA0 SHL SUB AND SUB PUSH2 0x59A JUMPI PUSH1 0x0 DUP1 SLOAD PUSH2 0x501 SWAP1 PUSH1 0x1 SWAP1 PUSH2 0x1370 JUMP JUMPDEST DUP2 SLOAD DUP2 LT PUSH2 0x511 JUMPI PUSH2 0x511 PUSH2 0x1389 JUMP JUMPDEST PUSH1 0x0 SWAP2 DUP3 MSTORE PUSH1 0x20 DUP3 KECCAK256 ADD SLOAD DUP2 SLOAD PUSH1 0x1 PUSH1 0x1 PUSH1 0xA0 SHL SUB SWAP1 SWAP2 AND SWAP2 SWAP1 DUP4 SWAP1 DUP2 LT PUSH2 0x53B JUMPI PUSH2 0x53B PUSH2 0x1389 JUMP JUMPDEST PUSH1 0x0 SWAP2 DUP3 MSTORE PUSH1 0x20 DUP3 KECCAK256 ADD DUP1 SLOAD PUSH1 0x1 PUSH1 0x1 PUSH1 0xA0 SHL SUB NOT AND PUSH1 0x1 PUSH1 0x1 PUSH1 0xA0 SHL SUB SWAP4 SWAP1 SWAP4 AND SWAP3 SWAP1 SWAP3 OR SWAP1 SWAP2 SSTORE DUP1 SLOAD DUP1 PUSH2 0x573 JUMPI PUSH2 0x573 PUSH2 0x139F JUMP JUMPDEST PUSH1 0x0 DUP3 DUP2 MSTORE PUSH1 0x20 SWAP1 KECCAK256 DUP2 ADD PUSH1 0x0 NOT SWAP1 DUP2 ADD DUP1 SLOAD PUSH1 0x1 PUSH1 0x1 PUSH1 0xA0 SHL SUB NOT AND SWAP1 SSTORE ADD SWAP1 SSTORE PUSH2 0x5A2 JUMP JUMPDEST PUSH1 0x1 ADD PUSH2 0x4B0 JUMP JUMPDEST POP PUSH1 0x0 SLOAD PUSH1 0x2 SLOAD GT ISZERO PUSH2 0x5EB JUMPI PUSH1 0x0 SLOAD PUSH1 0x2 DUP2 SWAP1 SSTORE PUSH1 0x40 MLOAD SWAP1 DUP2 MSTORE PUSH32 0xACBDB084C721332AC59F9B8E392196C9EB0E4932862DA8EB9BEAF0DAD4F550DA SWAP1 PUSH1 0x20 ADD PUSH1 0x40 MLOAD DUP1 SWAP2 SUB SWAP1 LOG1 JUMPDEST PUSH1 0x40 MLOAD PUSH1 0x1 PUSH1 0x1 PUSH1 0xA0 SHL SUB DUP3 AND SWAP1 PUSH32 0x58619076ADF5BB0943D100EF88D52D7C3FD691B19D3A9071B555B651FBF418DA SWAP1 PUSH1 0x0 SWAP1 LOG2 POP JUMP JUMPDEST CALLER PUSH1 0x0 SWAP1 DUP2 MSTORE PUSH1 0x1 PUSH1 0x20 MSTORE PUSH1 0x40 SWAP1 KECCAK256 SLOAD PUSH1 0xFF AND PUSH2 0x651 JUMPI PUSH1 0x40 MLOAD PUSH3 0x461BCD PUSH1 0xE5 SHL DUP2 MSTORE PUSH1 0x4 ADD PUSH2 0x3BD SWAP1 PUSH2 0x13B5 JUMP JUMPDEST PUSH1 0x3 SLOAD DUP2 SWAP1 DUP2 LT PUSH2 0x674 JUMPI PUSH1 0x40 MLOAD PUSH3 0x461BCD PUSH1 0xE5 SHL DUP2 MSTORE PUSH1 0x4 ADD PUSH2 0x3BD SWAP1 PUSH2 0x13EC JUMP JUMPDEST DUP2 PUSH1 0x3 DUP2 DUP2 SLOAD DUP2 LT PUSH2 0x688 JUMPI PUSH2 0x688 PUSH2 0x1389 JUMP JUMPDEST PUSH1 0x0 SWAP2 DUP3 MSTORE PUSH1 0x20 SWAP1 SWAP2 KECCAK256 PUSH1 0x3 PUSH1 0x5 SWAP1 SWAP3 MUL ADD ADD SLOAD PUSH1 0xFF AND ISZERO PUSH2 0x6BC JUMPI PUSH1 0x40 MLOAD PUSH3 0x461BCD PUSH1 0xE5 SHL DUP2 MSTORE PUSH1 0x4 ADD PUSH2 0x3BD SWAP1 PUSH2 0x1423 JUMP JUMPDEST PUSH1 0x0 DUP4 DUP2 MSTORE PUSH1 0x4 PUSH1 0x20 SWAP1 DUP2 MSTORE PUSH1 0x40 DUP1 DUP4 KECCAK256 CALLER DUP5 MSTORE SWAP1 SWAP2 MSTORE SWAP1 KECCAK256 SLOAD PUSH1 0xFF AND PUSH2 0x731 JUMPI PUSH1 0x40 MLOAD PUSH3 0x461BCD PUSH1 0xE5 SHL DUP2 MSTORE PUSH1 0x20 PUSH1 0x4 DUP3 ADD MSTORE PUSH1 0x24 DUP1 DUP3 ADD MSTORE PUSH32 0x4D756C74695369673A207478206E6F7420636F6E6669726D6564206279206361 PUSH1 0x44 DUP3 ADD MSTORE PUSH4 0x363632B9 PUSH1 0xE1 SHL PUSH1 0x64 DUP3 ADD MSTORE PUSH1 0x84 ADD PUSH2 0x3BD JUMP JUMPDEST PUSH1 0x0 PUSH1 0x3 DUP5 DUP2 SLOAD DUP2 LT PUSH2 0x746 JUMPI PUSH2 0x746 PUSH2 0x1389 JUMP JUMPDEST PUSH1 0x0 SWAP2 DUP3 MSTORE PUSH1 0x20 DUP1 DUP4 KECCAK256 DUP8 DUP5 MSTORE PUSH1 0x4 DUP1 DUP4 MSTORE PUSH1 0x40 DUP1 DUP7 KECCAK256 CALLER DUP8 MSTORE SWAP1 SWAP4 MSTORE SWAP2 DUP5 KECCAK256 DUP1 SLOAD PUSH1 0xFF NOT AND SWAP1 SSTORE PUSH1 0x5 SWAP1 SWAP3 MUL SWAP1 SWAP2 ADD SWAP1 DUP2 ADD DUP1 SLOAD SWAP2 SWAP4 POP PUSH1 0x1 SWAP3 SWAP1 SWAP2 PUSH2 0x78E SWAP1 DUP5 SWAP1 PUSH2 0x1370 JUMP JUMPDEST SWAP1 SWAP2 SSTORE POP POP PUSH1 0x40 MLOAD CALLER SWAP1 DUP6 SWAP1 PUSH32 0xDD7F1999A4389EA99F79C84DF2162A8E32E72DD35838B19E4094BF0357C1B62E SWAP1 PUSH1 0x0 SWAP1 LOG3 POP POP POP POP JUMP JUMPDEST PUSH1 0x0 DUP1 PUSH1 0x60 PUSH1 0x0 DUP1 PUSH1 0x0 PUSH1 0x3 DUP8 DUP2 SLOAD DUP2 LT PUSH2 0x7E3 JUMPI PUSH2 0x7E3 PUSH2 0x1389 JUMP JUMPDEST PUSH1 0x0 SWAP2 DUP3 MSTORE PUSH1 0x20 SWAP1 SWAP2 KECCAK256 PUSH1 0x5 SWAP1 SWAP2 MUL ADD DUP1 SLOAD PUSH1 0x1 DUP3 ADD SLOAD PUSH1 0x3 DUP4 ADD SLOAD PUSH1 0x4 DUP5 ADD SLOAD PUSH1 0x2 DUP6 ADD DUP1 SLOAD SWAP6 SWAP7 POP PUSH1 0x1 PUSH1 0x1 PUSH1 0xA0 SHL SUB SWAP1 SWAP5 AND SWAP5 SWAP3 SWAP4 SWAP3 PUSH1 0xFF SWAP1 SWAP3 AND SWAP2 DUP4 SWAP1 PUSH2 0x82D SWAP1 PUSH2 0x145A JUMP JUMPDEST DUP1 PUSH1 0x1F ADD PUSH1 0x20 DUP1 SWAP2 DIV MUL PUSH1 0x20 ADD PUSH1 0x40 MLOAD SWAP1 DUP2 ADD PUSH1 0x40 MSTORE DUP1 SWAP3 SWAP2 SWAP1 DUP2 DUP2 MSTORE PUSH1 0x20 ADD DUP3 DUP1 SLOAD PUSH2 0x859 SWAP1 PUSH2 0x145A JUMP JUMPDEST DUP1 ISZERO PUSH2 0x8A6 JUMPI DUP1 PUSH1 0x1F LT PUSH2 0x87B JUMPI PUSH2 0x100 DUP1 DUP4 SLOAD DIV MUL DUP4 MSTORE SWAP2 PUSH1 0x20 ADD SWAP2 PUSH2 0x8A6 JUMP JUMPDEST DUP3 ADD SWAP2 SWAP1 PUSH1 0x0 MSTORE PUSH1 0x20 PUSH1 0x0 KECCAK256 SWAP1 JUMPDEST DUP2 SLOAD DUP2 MSTORE SWAP1 PUSH1 0x1 ADD SWAP1 PUSH1 0x20 ADD DUP1 DUP4 GT PUSH2 0x889 JUMPI DUP3 SWAP1 SUB PUSH1 0x1F AND DUP3 ADD SWAP2 JUMPDEST POP POP POP POP POP SWAP3 POP SWAP6 POP SWAP6 POP SWAP6 POP SWAP6 POP SWAP6 POP POP SWAP2 SWAP4 SWAP6 SWAP1 SWAP3 SWAP5 POP JUMP JUMPDEST CALLER ADDRESS EQ PUSH2 0x8E0 JUMPI PUSH1 0x40 MLOAD PUSH3 0x461BCD PUSH1 0xE5 SHL DUP2 MSTORE PUSH1 0x4 ADD PUSH2 0x3BD SWAP1 PUSH2 0x1323 JUMP JUMPDEST PUSH1 0x1 PUSH1 0x1 PUSH1 0xA0 SHL SUB DUP2 AND PUSH2 0x92F JUMPI PUSH1 0x40 MLOAD PUSH3 0x461BCD PUSH1 0xE5 SHL DUP2 MSTORE PUSH1 0x20 PUSH1 0x4 DUP3 ADD MSTORE PUSH1 0x16 PUSH1 0x24 DUP3 ADD MSTORE PUSH22 0x4D756C74695369673A207A65726F2061646472657373 PUSH1 0x50 SHL PUSH1 0x44 DUP3 ADD MSTORE PUSH1 0x64 ADD PUSH2 0x3BD JUMP JUMPDEST PUSH1 0x1 PUSH1 0x1 PUSH1 0xA0 SHL SUB DUP2 AND PUSH1 0x0 SWAP1 DUP2 MSTORE PUSH1 0x1 PUSH1 0x20 MSTORE PUSH1 0x40 SWAP1 KECCAK256 SLOAD PUSH1 0xFF AND ISZERO PUSH2 0x998 JUMPI PUSH1 0x40 MLOAD PUSH3 0x461BCD PUSH1 0xE5 SHL DUP2 MSTORE PUSH1 0x20 PUSH1 0x4 DUP3 ADD MSTORE PUSH1 0x17 PUSH1 0x24 DUP3 ADD MSTORE PUSH32 0x4D756C74695369673A20616C7265616479206F776E6572000000000000000000 PUSH1 0x44 DUP3 ADD MSTORE PUSH1 0x64 ADD PUSH2 0x3BD JUMP JUMPDEST PUSH1 0x1 PUSH1 0x1 PUSH1 0xA0 SHL SUB DUP2 AND PUSH1 0x0 DUP2 DUP2 MSTORE PUSH1 0x1 PUSH1 0x20 DUP2 SWAP1 MSTORE PUSH1 0x40 DUP1 DUP4 KECCAK256 DUP1 SLOAD PUSH1 0xFF NOT AND DUP4 OR SWAP1 SSTORE DUP3 SLOAD SWAP2 DUP3 ADD DUP4 SSTORE DUP3 DUP1 MSTORE PUSH32 0x290DECD9548B62A8D60345A988386FC84BA6BC95484008F6362F93160EF3E563 SWAP1 SWAP2 ADD DUP1 SLOAD PUSH1 0x1 PUSH1 0x1 PUSH1 0xA0 SHL SUB NOT AND DUP5 OR SWAP1 SSTORE MLOAD PUSH32 0x994A936646FE87FFE4F1E469D3D6AA417D6B855598397F323DE5B449F765F0C3 SWAP2 SWAP1 LOG2 POP JUMP JUMPDEST PUSH1 0x3 DUP2 DUP2 SLOAD DUP2 LT PUSH2 0xA33 JUMPI PUSH1 0x0 DUP1 REVERT JUMPDEST PUSH1 0x0 SWAP2 DUP3 MSTORE PUSH1 0x20 SWAP1 SWAP2 KECCAK256 PUSH1 0x5 SWAP1 SWAP2 MUL ADD DUP1 SLOAD PUSH1 0x1 DUP3 ADD SLOAD PUSH1 0x2 DUP4 ADD DUP1 SLOAD PUSH1 0x1 PUSH1 0x1 PUSH1 0xA0 SHL SUB SWAP1 SWAP4 AND SWAP5 POP SWAP1 SWAP3 SWAP2 PUSH2 0xA69 SWAP1 PUSH2 0x145A JUMP JUMPDEST DUP1 PUSH1 0x1F ADD PUSH1 0x20 DUP1 SWAP2 DIV MUL PUSH1 0x20 ADD PUSH1 0x40 MLOAD SWAP1 DUP2 ADD PUSH1 0x40 MSTORE DUP1 SWAP3 SWAP2 SWAP1 DUP2 DUP2 MSTORE PUSH1 0x20 ADD DUP3 DUP1 SLOAD PUSH2 0xA95 SWAP1 PUSH2 0x145A JUMP JUMPDEST DUP1 ISZERO PUSH2 0xAE2 JUMPI DUP1 PUSH1 0x1F LT PUSH2 0xAB7 JUMPI PUSH2 0x100 DUP1 DUP4 SLOAD DIV MUL DUP4 MSTORE SWAP2 PUSH1 0x20 ADD SWAP2 PUSH2 0xAE2 JUMP JUMPDEST DUP3 ADD SWAP2 SWAP1 PUSH1 0x0 MSTORE PUSH1 0x20 PUSH1 0x0 KECCAK256 SWAP1 JUMPDEST DUP2 SLOAD DUP2 MSTORE SWAP1 PUSH1 0x1 ADD SWAP1 PUSH1 0x20 ADD DUP1 DUP4 GT PUSH2 0xAC5 JUMPI DUP3 SWAP1 SUB PUSH1 0x1F AND DUP3 ADD SWAP2 JUMPDEST POP POP POP POP PUSH1 0x3 DUP4 ADD SLOAD PUSH1 0x4 SWAP1 SWAP4 ADD SLOAD SWAP2 SWAP3 PUSH1 0xFF AND SWAP2 SWAP1 POP DUP6 JUMP JUMPDEST PUSH1 0x60 PUSH1 0x0 DUP1 SLOAD DUP1 PUSH1 0x20 MUL PUSH1 0x20 ADD PUSH1 0x40 MLOAD SWAP1 DUP2 ADD PUSH1 0x40 MSTORE DUP1 SWAP3 SWAP2 SWAP1 DUP2 DUP2 MSTORE PUSH1 0x20 ADD DUP3 DUP1 SLOAD DUP1 ISZERO PUSH2 0xB54 JUMPI PUSH1 0x20 MUL DUP3 ADD SWAP2 SWAP1 PUSH1 0x0 MSTORE PUSH1 0x20 PUSH1 0x0 KECCAK256 SWAP1 JUMPDEST DUP2 SLOAD PUSH1 0x1 PUSH1 0x1 PUSH1 0xA0 SHL SUB AND DUP2 MSTORE PUSH1 0x1 SWAP1 SWAP2 ADD SWAP1 PUSH1 0x20 ADD DUP1 DUP4 GT PUSH2 0xB36 JUMPI JUMPDEST POP POP POP POP POP SWAP1 POP SWAP1 JUMP JUMPDEST CALLER ADDRESS EQ PUSH2 0xB7D JUMPI PUSH1 0x40 MLOAD PUSH3 0x461BCD PUSH1 0xE5 SHL DUP2 MSTORE PUSH1 0x4 ADD PUSH2 0x3BD SWAP1 PUSH2 0x1323 JUMP JUMPDEST PUSH1 0x0 DUP2 GT DUP1 ISZERO PUSH2 0xB8F JUMPI POP PUSH1 0x0 SLOAD DUP2 GT ISZERO JUMPDEST PUSH2 0xBDB JUMPI PUSH1 0x40 MLOAD PUSH3 0x461BCD PUSH1 0xE5 SHL DUP2 MSTORE PUSH1 0x20 PUSH1 0x4 DUP3 ADD MSTORE PUSH1 0x1D PUSH1 0x24 DUP3 ADD MSTORE PUSH32 0x4D756C74695369673A20696E76616C696420726571756972656D656E74000000 PUSH1 0x44 DUP3 ADD MSTORE PUSH1 0x64 ADD PUSH2 0x3BD JUMP JUMPDEST PUSH1 0x2 DUP2 SWAP1 SSTORE PUSH1 0x40 MLOAD DUP2 DUP2 MSTORE PUSH32 0xACBDB084C721332AC59F9B8E392196C9EB0E4932862DA8EB9BEAF0DAD4F550DA SWAP1 PUSH1 0x20 ADD PUSH1 0x40 MLOAD DUP1 SWAP2 SUB SWAP1 LOG1 POP JUMP JUMPDEST CALLER PUSH1 0x0 SWAP1 DUP2 MSTORE PUSH1 0x1 PUSH1 0x20 MSTORE PUSH1 0x40 SWAP1 KECCAK256 SLOAD PUSH1 0xFF AND PUSH2 0xC45 JUMPI PUSH1 0x40 MLOAD PUSH3 0x461BCD PUSH1 0xE5 SHL DUP2 MSTORE PUSH1 0x4 ADD PUSH2 0x3BD SWAP1 PUSH2 0x13B5 JUMP JUMPDEST PUSH1 0x3 SLOAD DUP2 SWAP1 DUP2 LT PUSH2 0xC68 JUMPI PUSH1 0x40 MLOAD PUSH3 0x461BCD PUSH1 0xE5 SHL DUP2 MSTORE PUSH1 0x4 ADD PUSH2 0x3BD SWAP1 PUSH2 0x13EC JUMP JUMPDEST DUP2 PUSH1 0x3 DUP2 DUP2 SLOAD DUP2 LT PUSH2 0xC7C JUMPI PUSH2 0xC7C PUSH2 0x1389 JUMP JUMPDEST PUSH1 0x0 SWAP2 DUP3 MSTORE PUSH1 0x20 SWAP1 SWAP2 KECCAK256 PUSH1 0x3 PUSH1 0x5 SWAP1 SWAP3 MUL ADD ADD SLOAD PUSH1 0xFF AND ISZERO PUSH2 0xCB0 JUMPI PUSH1 0x40 MLOAD PUSH3 0x461BCD PUSH1 0xE5 SHL DUP2 MSTORE PUSH1 0x4 ADD PUSH2 0x3BD SWAP1 PUSH2 0x1423 JUMP JUMPDEST PUSH1 0x0 DUP4 DUP2 MSTORE PUSH1 0x4 PUSH1 0x20 SWAP1 DUP2 MSTORE PUSH1 0x40 DUP1 DUP4 KECCAK256 CALLER DUP5 MSTORE SWAP1 SWAP2 MSTORE SWAP1 KECCAK256 SLOAD DUP4 SWAP1 PUSH1 0xFF AND ISZERO PUSH2 0xD2D JUMPI PUSH1 0x40 MLOAD PUSH3 0x461BCD PUSH1 0xE5 SHL DUP2 MSTORE PUSH1 0x20 PUSH1 0x4 DUP3 ADD MSTORE PUSH1 0x28 PUSH1 0x24 DUP3 ADD MSTORE PUSH32 0x4D756C74695369673A20747820616C726561647920636F6E6669726D65642062 PUSH1 0x44 DUP3 ADD MSTORE PUSH8 0x3C9031B0B63632B9 PUSH1 0xC1 SHL PUSH1 0x64 DUP3 ADD MSTORE PUSH1 0x84 ADD PUSH2 0x3BD JUMP JUMPDEST PUSH1 0x0 PUSH1 0x3 DUP6 DUP2 SLOAD DUP2 LT PUSH2 0xD42 JUMPI PUSH2 0xD42 PUSH2 0x1389 JUMP JUMPDEST PUSH1 0x0 SWAP2 DUP3 MSTORE PUSH1 0x20 DUP1 DUP4 KECCAK256 DUP9 DUP5 MSTORE PUSH1 0x4 DUP1 DUP4 MSTORE PUSH1 0x40 DUP1 DUP7 KECCAK256 CALLER DUP8 MSTORE SWAP1 SWAP4 MSTORE SWAP2 DUP5 KECCAK256 DUP1 SLOAD PUSH1 0xFF NOT AND PUSH1 0x1 SWAP1 DUP2 OR SWAP1 SWAP2 SSTORE PUSH1 0x5 SWAP1 SWAP4 MUL ADD SWAP1 DUP2 ADD DUP1 SLOAD SWAP2 SWAP5 POP SWAP2 SWAP3 SWAP1 PUSH2 0xD8C SWAP1 DUP5 SWAP1 PUSH2 0x1494 JUMP JUMPDEST SWAP1 SWAP2 SSTORE POP POP PUSH1 0x40 MLOAD CALLER SWAP1 DUP7 SWAP1 PUSH32 0x15C2F311C9E0F53B50388279894AEFF029A3457884A6601E924FCA879E12ADCC SWAP1 PUSH1 0x0 SWAP1 LOG3 POP POP POP POP POP JUMP JUMPDEST CALLER PUSH1 0x0 SWAP1 DUP2 MSTORE PUSH1 0x1 PUSH1 0x20 MSTORE PUSH1 0x40 DUP2 KECCAK256 SLOAD PUSH1 0xFF AND PUSH2 0xDF4 JUMPI PUSH1 0x40 MLOAD PUSH3 0x461BCD PUSH1 0xE5 SHL DUP2 MSTORE PUSH1 0x4 ADD PUSH2 0x3BD SWAP1 PUSH2 0x13B5 JUMP JUMPDEST PUSH1 0x3 DUP1 SLOAD SWAP1 POP SWAP1 POP PUSH1 0x3 PUSH1 0x40 MLOAD DUP1 PUSH1 0xA0 ADD PUSH1 0x40 MSTORE DUP1 DUP8 PUSH1 0x1 PUSH1 0x1 PUSH1 0xA0 SHL SUB AND DUP2 MSTORE PUSH1 0x20 ADD DUP7 DUP2 MSTORE PUSH1 0x20 ADD DUP6 DUP6 DUP1 DUP1 PUSH1 0x1F ADD PUSH1 0x20 DUP1 SWAP2 DIV MUL PUSH1 0x20 ADD PUSH1 0x40 MLOAD SWAP1 DUP2 ADD PUSH1 0x40 MSTORE DUP1 SWAP4 SWAP3 SWAP2 SWAP1 DUP2 DUP2 MSTORE PUSH1 0x20 ADD DUP4 DUP4 DUP1 DUP3 DUP5 CALLDATACOPY PUSH1 0x0 SWAP3 ADD DUP3 SWAP1 MSTORE POP SWAP4 DUP6 MSTORE POP POP POP PUSH1 0x20 DUP1 DUP4 ADD DUP3 SWAP1 MSTORE PUSH1 0x40 SWAP3 DUP4 ADD DUP3 SWAP1 MSTORE DUP5 SLOAD PUSH1 0x1 DUP1 DUP3 ADD DUP8 SSTORE SWAP6 DUP4 MSTORE SWAP2 DUP2 SWAP1 KECCAK256 DUP5 MLOAD PUSH1 0x5 SWAP1 SWAP4 MUL ADD DUP1 SLOAD PUSH1 0x1 PUSH1 0x1 PUSH1 0xA0 SHL SUB NOT AND PUSH1 0x1 PUSH1 0x1 PUSH1 0xA0 SHL SUB SWAP1 SWAP4 AND SWAP3 SWAP1 SWAP3 OR DUP3 SSTORE DUP4 ADD MLOAD SWAP4 DUP2 ADD SWAP4 SWAP1 SWAP4 SSTORE DUP2 ADD MLOAD SWAP1 SWAP2 SWAP1 PUSH1 0x2 DUP3 ADD SWAP1 PUSH2 0xEBA SWAP1 DUP3 PUSH2 0x150E JUMP JUMPDEST POP PUSH1 0x60 DUP3 ADD MLOAD PUSH1 0x3 DUP3 ADD DUP1 SLOAD PUSH1 0xFF NOT AND SWAP2 ISZERO ISZERO SWAP2 SWAP1 SWAP2 OR SWAP1 SSTORE PUSH1 0x80 SWAP1 SWAP2 ADD MLOAD PUSH1 0x4 SWAP1 SWAP2 ADD SSTORE PUSH1 0x40 MLOAD PUSH1 0x1 PUSH1 0x1 PUSH1 0xA0 SHL SUB DUP7 AND SWAP1 CALLER SWAP1 DUP4 SWAP1 PUSH32 0x2ECF8C4571BE1F8A0B1E6FEAA711128F3F8038E97869AA59D0F595E21F50EAA0 SWAP1 PUSH2 0xF22 SWAP1 DUP10 SWAP1 DUP10 SWAP1 DUP10 SWAP1 PUSH2 0x15CE JUMP JUMPDEST PUSH1 0x40 MLOAD DUP1 SWAP2 SUB SWAP1 LOG4 SWAP5 SWAP4 POP POP POP POP JUMP JUMPDEST CALLER PUSH1 0x0 SWAP1 DUP2 MSTORE PUSH1 0x1 PUSH1 0x20 MSTORE PUSH1 0x40 SWAP1 KECCAK256 SLOAD PUSH1 0xFF AND PUSH2 0xF61 JUMPI PUSH1 0x40 MLOAD PUSH3 0x461BCD PUSH1 0xE5 SHL DUP2 MSTORE PUSH1 0x4 ADD PUSH2 0x3BD SWAP1 PUSH2 0x13B5 JUMP JUMPDEST PUSH1 0x3 SLOAD DUP2 SWAP1 DUP2 LT PUSH2 0xF84 JUMPI PUSH1 0x40 MLOAD PUSH3 0x461BCD PUSH1 0xE5 SHL DUP2 MSTORE PUSH1 0x4 ADD PUSH2 0x3BD SWAP1 PUSH2 0x13EC JUMP JUMPDEST DUP2 PUSH1 0x3 DUP2 DUP2 SLOAD DUP2 LT PUSH2 0xF98 JUMPI PUSH2 0xF98 PUSH2 0x1389 JUMP JUMPDEST PUSH1 0x0 SWAP2 DUP3 MSTORE PUSH1 0x20 SWAP1 SWAP2 KECCAK256 PUSH1 0x3 PUSH1 0x5 SWAP1 SWAP3 MUL ADD ADD SLOAD PUSH1 0xFF AND ISZERO PUSH2 0xFCC JUMPI PUSH1 0x40 MLOAD PUSH3 0x461BCD PUSH1 0xE5 SHL DUP2 MSTORE PUSH1 0x4 ADD PUSH2 0x3BD SWAP1 PUSH2 0x1423 JUMP JUMPDEST PUSH1 0x0 PUSH1 0x3 DUP5 DUP2 SLOAD DUP2 LT PUSH2 0xFE1 JUMPI PUSH2 0xFE1 PUSH2 0x1389 JUMP JUMPDEST SWAP1 PUSH1 0x0 MSTORE PUSH1 0x20 PUSH1 0x0 KECCAK256 SWAP1 PUSH1 0x5 MUL ADD SWAP1 POP PUSH1 0x2 SLOAD DUP2 PUSH1 0x4 ADD SLOAD LT ISZERO PUSH2 0x1052 JUMPI PUSH1 0x40 MLOAD PUSH3 0x461BCD PUSH1 0xE5 SHL DUP2 MSTORE PUSH1 0x20 PUSH1 0x4 DUP3 ADD MSTORE PUSH1 0x22 PUSH1 0x24 DUP3 ADD MSTORE PUSH32 0x4D756C74695369673A206E6F7420656E6F75676820636F6E6669726D6174696F PUSH1 0x44 DUP3 ADD MSTORE PUSH2 0x6E73 PUSH1 0xF0 SHL PUSH1 0x64 DUP3 ADD MSTORE PUSH1 0x84 ADD PUSH2 0x3BD JUMP JUMPDEST PUSH1 0x3 DUP2 ADD DUP1 SLOAD PUSH1 0xFF NOT AND PUSH1 0x1 SWAP1 DUP2 OR SWAP1 SWAP2 SSTORE DUP2 SLOAD SWAP1 DUP3 ADD SLOAD PUSH1 0x40 MLOAD PUSH1 0x0 SWAP3 PUSH1 0x1 PUSH1 0x1 PUSH1 0xA0 SHL SUB AND SWAP2 SWAP1 PUSH2 0x1089 SWAP1 PUSH1 0x2 DUP7 ADD SWAP1 PUSH2 0x1604 JUMP JUMPDEST PUSH1 0x0 PUSH1 0x40 MLOAD DUP1 DUP4 SUB DUP2 DUP6 DUP8 GAS CALL SWAP3 POP POP POP RETURNDATASIZE DUP1 PUSH1 0x0 DUP2 EQ PUSH2 0x10C6 JUMPI PUSH1 0x40 MLOAD SWAP2 POP PUSH1 0x1F NOT PUSH1 0x3F RETURNDATASIZE ADD AND DUP3 ADD PUSH1 0x40 MSTORE RETURNDATASIZE DUP3 MSTORE RETURNDATASIZE PUSH1 0x0 PUSH1 0x20 DUP5 ADD RETURNDATACOPY PUSH2 0x10CB JUMP JUMPDEST PUSH1 0x60 SWAP2 POP JUMPDEST POP POP SWAP1 POP DUP1 PUSH2 0x111C JUMPI PUSH1 0x40 MLOAD PUSH3 0x461BCD PUSH1 0xE5 SHL DUP2 MSTORE PUSH1 0x20 PUSH1 0x4 DUP3 ADD MSTORE PUSH1 0x1D PUSH1 0x24 DUP3 ADD MSTORE PUSH32 0x4D756C74695369673A20747820657865637574696F6E206661696C6564000000 PUSH1 0x44 DUP3 ADD MSTORE PUSH1 0x64 ADD PUSH2 0x3BD JUMP JUMPDEST PUSH1 0x40 MLOAD CALLER SWAP1 DUP7 SWAP1 PUSH32 0xEFC13BDCF58F184EA7CAE26B499FB33B539E01D0197CEA456F3ADA289B8CF19B SWAP1 PUSH1 0x0 SWAP1 LOG3 POP POP POP POP POP JUMP JUMPDEST PUSH1 0x0 PUSH1 0x20 DUP3 DUP5 SUB SLT ISZERO PUSH2 0x1162 JUMPI PUSH1 0x0 DUP1 REVERT JUMPDEST POP CALLDATALOAD SWAP2 SWAP1 POP JUMP JUMPDEST DUP1 CALLDATALOAD PUSH1 0x1 PUSH1 0x1 PUSH1 0xA0 SHL SUB DUP2 AND DUP2 EQ PUSH2 0x1180 JUMPI PUSH1 0x0 DUP1 REVERT JUMPDEST SWAP2 SWAP1 POP JUMP JUMPDEST PUSH1 0x0 PUSH1 0x20 DUP3 DUP5 SUB SLT ISZERO PUSH2 0x1197 JUMPI PUSH1 0x0 DUP1 REVERT JUMPDEST PUSH2 0x11A0 DUP3 PUSH2 0x1169 JUMP JUMPDEST SWAP4 SWAP3 POP POP POP JUMP JUMPDEST PUSH1 0x1 DUP1 PUSH1 0xA0 SHL SUB DUP7 AND DUP2 MSTORE PUSH1 0x0 PUSH1 0x20 DUP7 PUSH1 0x20 DUP5 ADD MSTORE PUSH1 0xA0 PUSH1 0x40 DUP5 ADD MSTORE DUP6 MLOAD DUP1 PUSH1 0xA0 DUP6 ADD MSTORE PUSH1 0x0 JUMPDEST DUP2 DUP2 LT ISZERO PUSH2 0x11EA JUMPI DUP8 DUP2 ADD DUP4 ADD MLOAD DUP6 DUP3 ADD PUSH1 0xC0 ADD MSTORE DUP3 ADD PUSH2 0x11CE JUMP JUMPDEST POP PUSH1 0x0 PUSH1 0xC0 DUP3 DUP7 ADD ADD MSTORE PUSH1 0xC0 PUSH1 0x1F NOT PUSH1 0x1F DUP4 ADD AND DUP6 ADD ADD SWAP3 POP POP POP PUSH2 0x1213 PUSH1 0x60 DUP4 ADD DUP6 ISZERO ISZERO SWAP1 MSTORE JUMP JUMPDEST DUP3 PUSH1 0x80 DUP4 ADD MSTORE SWAP7 SWAP6 POP POP POP POP POP POP JUMP JUMPDEST PUSH1 0x0 DUP1 PUSH1 0x40 DUP4 DUP6 SUB SLT ISZERO PUSH2 0x1236 JUMPI PUSH1 0x0 DUP1 REVERT JUMPDEST DUP3 CALLDATALOAD SWAP2 POP PUSH2 0x1246 PUSH1 0x20 DUP5 ADD PUSH2 0x1169 JUMP JUMPDEST SWAP1 POP SWAP3 POP SWAP3 SWAP1 POP JUMP JUMPDEST PUSH1 0x20 DUP1 DUP3 MSTORE DUP3 MLOAD DUP3 DUP3 ADD DUP2 SWAP1 MSTORE PUSH1 0x0 SWAP2 SWAP1 DUP5 DUP3 ADD SWAP1 PUSH1 0x40 DUP6 ADD SWAP1 DUP5 JUMPDEST DUP2 DUP2 LT ISZERO PUSH2 0x1290 JUMPI DUP4 MLOAD PUSH1 0x1 PUSH1 0x1 PUSH1 0xA0 SHL SUB AND DUP4 MSTORE SWAP3 DUP5 ADD SWAP3 SWAP2 DUP5 ADD SWAP2 PUSH1 0x1 ADD PUSH2 0x126B JUMP JUMPDEST POP SWAP1 SWAP7 SWAP6 POP POP POP POP POP POP JUMP JUMPDEST PUSH1 0x0 DUP1 PUSH1 0x0 DUP1 PUSH1 0x60 DUP6 DUP8 SUB SLT ISZERO PUSH2 0x12B2 JUMPI PUSH1 0x0 DUP1 REVERT JUMPDEST PUSH2 0x12BB DUP6 PUSH2 0x1169 JUMP JUMPDEST SWAP4 POP PUSH1 0x20 DUP6 ADD CALLDATALOAD SWAP3 POP PUSH1 0x40 DUP6 ADD CALLDATALOAD PUSH8 0xFFFFFFFFFFFFFFFF DUP1 DUP3 GT ISZERO PUSH2 0x12DF JUMPI PUSH1 0x0 DUP1 REVERT JUMPDEST DUP2 DUP8 ADD SWAP2 POP DUP8 PUSH1 0x1F DUP4 ADD SLT PUSH2 0x12F3 JUMPI PUSH1 0x0 DUP1 REVERT JUMPDEST DUP2 CALLDATALOAD DUP2 DUP2 GT ISZERO PUSH2 0x1302 JUMPI PUSH1 0x0 DUP1 REVERT JUMPDEST DUP9 PUSH1 0x20 DUP3 DUP6 ADD ADD GT ISZERO PUSH2 0x1314 JUMPI PUSH1 0x0 DUP1 REVERT JUMPDEST SWAP6 SWAP9 SWAP5 SWAP8 POP POP PUSH1 0x20 ADD SWAP5 POP POP POP JUMP JUMPDEST PUSH1 0x20 DUP1 DUP3 MSTORE PUSH1 0x1E SWAP1 DUP3 ADD MSTORE PUSH32 0x4D756C74695369673A2063616C6C6572206973206E6F742077616C6C65740000 PUSH1 0x40 DUP3 ADD MSTORE PUSH1 0x60 ADD SWAP1 JUMP JUMPDEST PUSH4 0x4E487B71 PUSH1 0xE0 SHL PUSH1 0x0 MSTORE PUSH1 0x11 PUSH1 0x4 MSTORE PUSH1 0x24 PUSH1 0x0 REVERT JUMPDEST DUP2 DUP2 SUB DUP2 DUP2 GT ISZERO PUSH2 0x1383 JUMPI PUSH2 0x1383 PUSH2 0x135A JUMP JUMPDEST SWAP3 SWAP2 POP POP JUMP JUMPDEST PUSH4 0x4E487B71 PUSH1 0xE0 SHL PUSH1 0x0 MSTORE PUSH1 0x32 PUSH1 0x4 MSTORE PUSH1 0x24 PUSH1 0x0 REVERT JUMPDEST PUSH4 0x4E487B71 PUSH1 0xE0 SHL PUSH1 0x0 MSTORE PUSH1 0x31 PUSH1 0x4 MSTORE PUSH1 0x24 PUSH1 0x0 REVERT JUMPDEST PUSH1 0x20 DUP1 DUP3 MSTORE PUSH1 0x1D SWAP1 DUP3 ADD MSTORE PUSH32 0x4D756C74695369673A2063616C6C6572206973206E6F74206F776E6572000000 PUSH1 0x40 DUP3 ADD MSTORE PUSH1 0x60 ADD SWAP1 JUMP JUMPDEST PUSH1 0x20 DUP1 DUP3 MSTORE PUSH1 0x1B SWAP1 DUP3 ADD MSTORE PUSH32 0x4D756C74695369673A20747820646F6573206E6F742065786973740000000000 PUSH1 0x40 DUP3 ADD MSTORE PUSH1 0x60 ADD SWAP1 JUMP JUMPDEST PUSH1 0x20 DUP1 DUP3 MSTORE PUSH1 0x1D SWAP1 DUP3 ADD MSTORE PUSH32 0x4D756C74695369673A20747820616C7265616479206578656375746564000000 PUSH1 0x40 DUP3 ADD MSTORE PUSH1 0x60 ADD SWAP1 JUMP JUMPDEST PUSH1 0x1 DUP2 DUP2 SHR SWAP1 DUP3 AND DUP1 PUSH2 0x146E JUMPI PUSH1 0x7F DUP3 AND SWAP2 POP JUMPDEST PUSH1 0x20 DUP3 LT DUP2 SUB PUSH2 0x148E JUMPI PUSH4 0x4E487B71 PUSH1 0xE0 SHL PUSH1 0x0 MSTORE PUSH1 0x22 PUSH1 0x4 MSTORE PUSH1 0x24 PUSH1 0x0 REVERT JUMPDEST POP SWAP2 SWAP1 POP JUMP JUMPDEST DUP1 DUP3 ADD DUP1 DUP3 GT ISZERO PUSH2 0x1383 JUMPI PUSH2 0x1383 PUSH2 0x135A JUMP JUMPDEST PUSH4 0x4E487B71 PUSH1 0xE0 SHL PUSH1 0x0 MSTORE PUSH1 0x41 PUSH1 0x4 MSTORE PUSH1 0x24 PUSH1 0x0 REVERT JUMPDEST PUSH1 0x1F DUP3 GT ISZERO PUSH2 0x1509 JUMPI PUSH1 0x0 DUP2 PUSH1 0x0 MSTORE PUSH1 0x20 PUSH1 0x0 KECCAK256 PUSH1 0x1F DUP6 ADD PUSH1 0x5 SHR DUP2 ADD PUSH1 0x20 DUP7 LT ISZERO PUSH2 0x14E6 JUMPI POP DUP1 JUMPDEST PUSH1 0x1F DUP6 ADD PUSH1 0x5 SHR DUP3 ADD SWAP2 POP JUMPDEST DUP2 DUP2 LT ISZERO PUSH2 0x1505 JUMPI DUP3 DUP2 SSTORE PUSH1 0x1 ADD PUSH2 0x14F2 JUMP JUMPDEST POP POP POP JUMPDEST POP POP POP JUMP JUMPDEST DUP2 MLOAD PUSH8 0xFFFFFFFFFFFFFFFF DUP2 GT ISZERO PUSH2 0x1528 JUMPI PUSH2 0x1528 PUSH2 0x14A7 JUMP JUMPDEST PUSH2 0x153C DUP2 PUSH2 0x1536 DUP5 SLOAD PUSH2 0x145A JUMP JUMPDEST DUP5 PUSH2 0x14BD JUMP JUMPDEST PUSH1 0x20 DUP1 PUSH1 0x1F DUP4 GT PUSH1 0x1 DUP2 EQ PUSH2 0x1571 JUMPI PUSH1 0x0 DUP5 ISZERO PUSH2 0x1559 JUMPI POP DUP6 DUP4 ADD MLOAD JUMPDEST PUSH1 0x0 NOT PUSH1 0x3 DUP7 SWAP1 SHL SHR NOT AND PUSH1 0x1 DUP6 SWAP1 SHL OR DUP6 SSTORE PUSH2 0x1505 JUMP JUMPDEST PUSH1 0x0 DUP6 DUP2 MSTORE PUSH1 0x20 DUP2 KECCAK256 PUSH1 0x1F NOT DUP7 AND SWAP2 JUMPDEST DUP3 DUP2 LT ISZERO PUSH2 0x15A0 JUMPI DUP9 DUP7 ADD MLOAD DUP3 SSTORE SWAP5 DUP5 ADD SWAP5 PUSH1 0x1 SWAP1 SWAP2 ADD SWAP1 DUP5 ADD PUSH2 0x1581 JUMP JUMPDEST POP DUP6 DUP3 LT ISZERO PUSH2 0x15BE JUMPI DUP8 DUP6 ADD MLOAD PUSH1 0x0 NOT PUSH1 0x3 DUP9 SWAP1 SHL PUSH1 0xF8 AND SHR NOT AND DUP2 SSTORE JUMPDEST POP POP POP POP POP PUSH1 0x1 SWAP1 DUP2 SHL ADD SWAP1 SSTORE POP JUMP JUMPDEST DUP4 DUP2 MSTORE PUSH1 0x40 PUSH1 0x20 DUP3 ADD MSTORE DUP2 PUSH1 0x40 DUP3 ADD MSTORE DUP2 DUP4 PUSH1 0x60 DUP4 ADD CALLDATACOPY PUSH1 0x0 DUP2 DUP4 ADD PUSH1 0x60 SWAP1 DUP2 ADD SWAP2 SWAP1 SWAP2 MSTORE PUSH1 0x1F SWAP1 SWAP3 ADD PUSH1 0x1F NOT AND ADD ADD SWAP3 SWAP2 POP POP JUMP JUMPDEST PUSH1 0x0 DUP1 DUP4 SLOAD PUSH2 0x1612 DUP2 PUSH2 0x145A JUMP JUMPDEST PUSH1 0x1 DUP3 DUP2 AND DUP1 ISZERO PUSH2 0x162A JUMPI PUSH1 0x1 DUP2 EQ PUSH2 0x163F JUMPI PUSH2 0x166E JUMP JUMPDEST PUSH1 0xFF NOT DUP5 AND DUP8 MSTORE DUP3 ISZERO ISZERO DUP4 MUL DUP8 ADD SWAP5 POP PUSH2 0x166E JUMP JUMPDEST DUP8 PUSH1 0x0 MSTORE PUSH1 0x20 DUP1 PUSH1 0x0 KECCAK256 PUSH1 0x0 JUMPDEST DUP6 DUP2 LT ISZERO PUSH2 0x1665 JUMPI DUP2 SLOAD DUP11 DUP3 ADD MSTORE SWAP1 DUP5 ADD SWAP1 DUP3 ADD PUSH2 0x164C JUMP JUMPDEST POP POP POP DUP3 DUP8 ADD SWAP5 POP JUMPDEST POP SWAP3 SWAP7 SWAP6 POP POP POP POP POP POP JUMP INVALID LOG2 PUSH5 0x6970667358 0x22 SLT KECCAK256 0xD8 PUSH24 0x386131B6D1F79963ED4F8630D6FD577FC46451C16E4BC62A 0xAB MLOAD DUP1 DUP11 PUSH12 0xC64736F6C63430008180033 "},"methodIdentifiers":{"addOwner(address)":"7065cb48","changeRequirement(uint256)":"ba51a6df","confirmTransaction(uint256)":"c01a8c84","executeTransaction(uint256)":"ee22610b","getOwners()":"a0e67e2b","getTransaction(uint256)":"33ea3dc8","getTransactionCount()":"2e7700f0","isConfirmed(uint256,address)":"80f59a65","isOwner(address)":"2f54bf6e","owners(uint256)":"025e7c27","removeOwner(address)":"173825d9","required()":"dc8452cd","revokeConfirmation(uint256)":"20ea8d86","submitTransaction(address,uint256,bytes)":"c6427474","transactions(uint256)":"9ace38c2"}}}}}