{
  "_format": "hh-sol-artifact-1",
  "contractName": "MultiSigWallet",
  "sourceName": "contracts/MultiSigWallet.sol",
  "abi": [
    {
      "inputs": [
        {
          "internalType": "address[]",
          "name": "_owners",
          "type": "address[]"
        },
        {
          "internalType": "uint256",
          "name": "_required",
          "type": "uint256"
        }
      ],
      "stateMutability": "nonpayable",
      "type": "constructor"
    },
    {
      "anonymous": false,
      "inputs": [
        {
          "indexed": true,
          "internalType": "uint256",
          "name": "txId",
          "type": "uint256"
        },
        {
          "indexed": true,
          "internalType": "address",
          "name": "owner",
          "type": "address"
        }
      ],
      "name": "ConfirmationRevoked",
      "type": "event"
    },
    {
      "anonymous": false,
      "inputs": [
        {
          "indexed": true,
          "internalType": "address",
          "name": "sender",
          "type": "address"
        },
        {
          "indexed": false,
          "internalType": "uint256",
          "name": "amount",
          "type": "uint256"
        },
        {
          "indexed": false,
          "internalType": "uint256",
          "name": "balance",
          "type": "uint256"
        }
      ],
      "name": "Deposit",
      "type": "event"
    },
    {
      "anonymous": false,
      "inputs": [
        {
          "indexed": true,
          "internalType": "address",
          "name": "newOwner",
          "type": "address"
        }
      ],
      "name": "OwnerAdded",
      "type": "event"
    },
    {
      "anonymous": false,
      "inputs": [
        {
          "indexed": true,
          "internalType": "address",
          "name": "removedOwner",
          "type": "address"
        }
      ],
      "name": "OwnerRemoved",
      "type": "event"
    },
    {
      "anonymous": false,
      "inputs": [
        {
          "indexed": false,
          "internalType": "uint256",
          "name": "newRequired",
          "type": "uint256"
        }
      ],
      "name": "RequirementChanged",
      "type": "event"
    },
    {
      "anonymous": false,
      "inputs": [
        {
          "indexed": true,
          "internalType": "uint256",
          "name": "txId",
          "type": "uint256"
        },
        {
          "indexed": true,
          "internalType": "address",
          "name": "owner",
          "type": "address"
        }
      ],
      "name": "TransactionConfirmed",
      "type": "event"
    },
    {
      "anonymous": false,
      "inputs": [
        {
          "indexed": true,
          "internalType": "uint256",
          "name": "txId",
          "type": "uint256"
        },
        {
          "indexed": true,
          "internalType": "address",
          "name": "executor",
          "type": "address"
        }
      ],
      "name": "TransactionExecuted",
      "type": "event"
    },
    {
      "anonymous": false,
      "inputs": [
        {
          "indexed": true,
          "internalType": "uint256",
          "name": "txId",
          "type": "uint256"
        },
        {
          "indexed": true,
          "internalType": "address",
          "name": "proposer",
          "type": "address"
        },
        {
          "indexed": true,
          "internalType": "address",
          "name": "to",
          "type": "address"
        },
        {
          "indexed": false,
          "internalType": "uint256",
          "name": "value",
          "type": "uint256"
        },
        {
          "indexed": false,
          "internalType": "bytes",
          "name": "data",
          "type": "bytes"
        }
      ],
      "name": "TransactionSubmitted",
      "type": "event"
    },
    {
      "inputs": [
        {
          "internalType": "address",
          "name": "_owner",
          "type": "address"
        }
      ],
      "name": "addOwner",
      "outputs": [],
      "stateMutability": "nonpayable",
      "type": "function"
    },
    {
      "inputs": [
        {
          "internalType": "uint256",
          "name": "_required",
          "type": "uint256"
        }
      ],
      "name": "changeRequirement",
      "outputs": [],
      "stateMutability": "nonpayable",
      "type": "function"
    },
    {
      "inputs": [
        {
          "internalType": "uint256",
          "name": "_txId",
          "type": "uint256"
        }
      ],
      "name": "confirmTransaction",
      "outputs": [],
      "stateMutability": "nonpayable",
      "type": "function"
    },
    {
      "inputs": [
        {
          "internalType": "uint256",
          "name": "_txId",
          "type": "uint256"
        }
      ],
      "name": "executeTransaction",
      "outputs": [],
      "stateMutability": "nonpayable",
      "type": "function"
    },
    {
      "inputs": [],
      "name": "getOwners",
      "outputs": [
        {
          "internalType": "address[]",
          "name": "",
          "type": "address[]"
        }
      ],
      "stateMutability": "view",
      "type": "function"
    },
    {
      "inputs": [
        {
          "internalType": "uint256",
          "name": "_txId",
          "type": "uint256"
        }
      ],
      "name": "getTransaction",
      "outputs": [
        {
          "internalType": "address",
          "name": "to",
          "type": "address"
        },
        {
          "internalType": "uint256",
          "name": "value",
          "type": "uint256"
        },
        {
          "internalType": "bytes",
          "name": "data",
          "type": "bytes"
        },
        {
          "internalType": "bool",
          "name": "executed",
          "type": "bool"
        },
        {
          "internalType": "uint256",
          "name": "confirmationCount",
          "type": "uint256"
        }
      ],
      "stateMutability": "view",
      "type": "function"
    },
    {
      "inputs": [],
      "name": "getTransactionCount",
      "outputs": [
        {
          "internalType": "uint256",
          "name": "",
          "type": "uint256"
        }
      ],
      "stateMutability": "view",
      "type": "function"
    },
    {
      "inputs": [
        {
          "internalType": "uint256",
          "name": "",
          "type": "uint256"
        },
        {
          "internalType": "address",
          "name": "",
          "type": "address"
        }
      ],
      "name": "isConfirmed",
      "outputs": [
        {
          "internalType": "bool",
          "name": "",
          "type": "bool"
        }
      ],
      "stateMutability": "view",
      "type": "function"
    },
    {
      "inputs": [
        {
          "internalType": "address",
          "name": "",
          "type": "address"
        }
      ],
      "name": "isOwner",
      "outputs": [
        {
          "internalType": "bool",
          "name": "",
          "type": "bool"
        }
      ],
      "stateMutability": "view",
      "type": "function"
    },
    {
      "inputs": [
        {
          "internalType": "uint256",
          "name": "",
          "type": "uint256"
        }
      ],
      "name": "owners",
      "outputs": [
        {
          "internalType": "address",
          "name": "",
          "type": "address"
        }
      ],
      "stateMutability": "view",
      "type": "function"
    },
    {
      "inputs": [
        {
          "internalType": "address",
          "name": "_owner",
          "type": "address"
        }
      ],
      "name": "removeOwner",
      "outputs": [],
      "stateMutability": "nonpayable",
      "type": "function"
    },
    {
      "inputs": [],
      "name": "required",
      "outputs": [
        {
          "internalType": "uint256",
          "name": "",
          "type": "uint256"
        }
      ],
      "stateMutability": "view",
      "type": "function"
    },
    {
      "inputs": [
        {
          "internalType": "uint256",
          "name": "_txId",
          "type": "uint256"
        }
      ],
      "name": "revokeConfirmation",
      "outputs": [],
      "stateMutability": "nonpayable",
      "type": "function"
    },
    {
      "inputs": [
        {
          "internalType": "address",
          "name": "_to",
          "type": "address"
        },
        {
          "internalType": "uint256",
          "name": "_value",
          "type": "uint256"
        },
        {
          "internalType": "bytes",
          "name": "_data",
          "type": "bytes"
        }
      ],
      "name": "submitTransaction",
      "outputs": [
        {
          "internalType": "uint256",
          "name": "txId",
          "type": "uint256"
        }
      ],
      "stateMutability": "nonpayable",
      "type": "function"
    },
    {
      "inputs": [
        {
          "internalType": "uint256",
          "name": "",
          "type": "uint256"
        }
      ],
      "name": "transactions",
      "outputs": [
        {
          "internalType": "address",
          "name": "to",
          "type": "address"
        },
        {
          "internalType": "uint256",
          "name": "value",
          "type": "uint256"
        },
        {
          "internalType": "bytes",
          "name": "data",
          "type": "bytes"
        },
        {
          "internalType": "bool",
          "name": "executed",
          "type": "bool"
        },
        {
          "internalType": "uint256",
          "name": "confirmationCount",
          "type": "uint256"
        }
      ],
      "stateMutability": "view",
      "type": "function"
    },
    {
      "stateMutability": "payable",
      "type": "receive"
    }
  ],
  "bytecode": "0x60806040523480156200001157600080fd5b5060405162001a4038038062001a40833981016040819052620000349162000290565b60008251116200008b5760405162461bcd60e51b815260206004820152601960248201527f4d756c74695369673a206f776e6572732072657175697265640000000000000060448201526064015b60405180910390fd5b6000811180156200009d575081518111155b620000eb5760405162461bcd60e51b815260206004820181905260248201527f4d756c74695369673a20696e76616c696420726571756972656420636f756e74604482015260640162000082565b60005b8251811015620002525760008382815181106200010f576200010f6200036a565b6020026020010151905060006001600160a01b0316816001600160a01b0316036200017d5760405162461bcd60e51b815260206004820152601c60248201527f4d756c74695369673a207a65726f2061646472657373206f776e657200000000604482015260640162000082565b6001600160a01b03811660009081526001602052604090205460ff1615620001e85760405162461bcd60e51b815260206004820152601960248201527f4d756c74695369673a206475706c6963617465206f776e657200000000000000604482015260640162000082565b6001600160a01b031660008181526001602081905260408220805460ff191682179055815480820183559180527f290decd9548b62a8d60345a988386fc84ba6bc95484008f6362f93160ef3e56390910180546001600160a01b03191690921790915501620000ee565b506002555062000380565b634e487b7160e01b600052604160045260246000fd5b80516001600160a01b03811681146200028b57600080fd5b919050565b60008060408385031215620002a457600080fd5b82516001600160401b0380821115620002bc57600080fd5b818501915085601f830112620002d157600080fd5b8151602082821115620002e857620002e86200025d565b8160051b604051601f19603f830116810181811086821117156200031057620003106200025d565b6040529283528183019350848101820192898411156200032f57600080fd5b948201945b838610156200035857620003488662000273565b8552948201949382019362000334565b97909101519698969750505050505050565b634e487b7160e01b600052603260045260246000fd5b6116b080620003906000396000f3fe6080604052600436106100ec5760003560e01c806380f59a651161008a578063c01a8c8411610059578063c01a8c84146102fe578063c64274741461031e578063dc8452cd1461033e578063ee22610b1461035457600080fd5b806380f59a65146102615780639ace38c21461029c578063a0e67e2b146102bc578063ba51a6df146102de57600080fd5b80632e7700f0116100c65780632e7700f0146101b15780632f54bf6e146101d057806333ea3dc8146102105780637065cb481461024157600080fd5b8063025e7c2714610132578063173825d91461016f57806320ea8d861461019157600080fd5b3661012d576040805134815247602082015233917f90890809c654f11d6e72a28fa60149770a0d11ec6c92319d6ceb2bb0a4ea1a15910160405180910390a2005b600080fd5b34801561013e57600080fd5b5061015261014d366004611150565b610374565b6040516001600160a01b0390911681526020015b60405180910390f35b34801561017b57600080fd5b5061018f61018a366004611185565b61039e565b005b34801561019d57600080fd5b5061018f6101ac366004611150565b610622565b3480156101bd57600080fd5b506003545b604051908152602001610166565b3480156101dc57600080fd5b506102006101eb366004611185565b60016020526000908152604090205460ff1681565b6040519015158152602001610166565b34801561021c57600080fd5b5061023061022b366004611150565b6107c6565b6040516101669594939291906111a7565b34801561024d57600080fd5b5061018f61025c366004611185565b6108c1565b34801561026d57600080fd5b5061020061027c366004611223565b600460209081526000928352604080842090915290825290205460ff1681565b3480156102a857600080fd5b506102306102b7366004611150565b610a23565b3480156102c857600080fd5b506102d1610afc565b604051610166919061124f565b3480156102ea57600080fd5b5061018f6102f9366004611150565b610b5e565b34801561030a57600080fd5b5061018f610319366004611150565b610c16565b34801561032a57600080fd5b506101c261033936600461129c565b610dc5565b34801561034a57600080fd5b506101c260025481565b34801561036057600080fd5b5061018f61036f366004611150565b610f32565b6000818154811061038457600080fd5b6000918252602090912001546001600160a01b0316905081565b3330146103c65760405162461bcd60e51b81526004016103bd90611323565b60405180910390fd5b6001600160a01b03811660009081526001602052604090205460ff166104275760405162461bcd60e51b815260206004820152601660248201527526bab63a34a9b4b39d103737ba1030b71037bbb732b960511b60448201526064016103bd565b6000805461043790600190611370565b1161048f5760405162461bcd60e51b815260206004820152602260248201527f4d756c74695369673a2063616e6e6f742072656d6f7665206c617374206f776e60448201526132b960f11b60648201526084016103bd565b6001600160a01b0381166000908152600160205260408120805460ff191690555b6000548110156105a257816001600160a01b0316600082815481106104d7576104d7611389565b6000918252602090912001546001600160a01b03160361059a576000805461050190600190611370565b8154811061051157610511611389565b600091825260208220015481546001600160a01b0390911691908390811061053b5761053b611389565b6000918252602082200180546001600160a01b0319166001600160a01b0393909316929092179091558054806105735761057361139f565b600082815260209020810160001990810180546001600160a01b03191690550190556105a2565b6001016104b0565b5060005460025411156105eb5760005460028190556040519081527facbdb084c721332ac59f9b8e392196c9eb0e4932862da8eb9beaf0dad4f550da9060200160405180910390a15b6040516001600160a01b038216907f58619076adf5bb0943d100ef88d52d7c3fd691b19d3a9071b555b651fbf418da90600090a250565b3360009081526001602052604090205460ff166106515760405162461bcd60e51b81526004016103bd906113b5565b600354819081106106745760405162461bcd60e51b81526004016103bd906113ec565b816003818154811061068857610688611389565b600091825260209091206003600590920201015460ff16156106bc5760405162461bcd60e51b81526004016103bd90611423565b600083815260046020908152604080832033845290915290205460ff166107315760405162461bcd60e51b8152602060048201526024808201527f4d756c74695369673a207478206e6f7420636f6e6669726d6564206279206361604482015263363632b960e11b60648201526084016103bd565b60006003848154811061074657610746611389565b6000918252602080832087845260048083526040808620338752909352918420805460ff1916905560059092029091019081018054919350600192909161078e908490611370565b9091555050604051339085907fdd7f1999a4389ea99f79c84df2162a8e32e72dd35838b19e4094bf0357c1b62e90600090a350505050565b60008060606000806000600387815481106107e3576107e3611389565b6000918252602090912060059091020180546001820154600383015460048401546002850180549596506001600160a01b039094169492939260ff90921691839061082d9061145a565b80601f01602080910402602001604051908101604052809291908181526020018280546108599061145a565b80156108a65780601f1061087b576101008083540402835291602001916108a6565b820191906000526020600020905b81548152906001019060200180831161088957829003601f168201915b50505050509250955095509550955095505091939590929450565b3330146108e05760405162461bcd60e51b81526004016103bd90611323565b6001600160a01b03811661092f5760405162461bcd60e51b81526020600482015260166024820152754d756c74695369673a207a65726f206164647265737360501b60448201526064016103bd565b6001600160a01b03811660009081526001602052604090205460ff16156109985760405162461bcd60e51b815260206004820152601760248201527f4d756c74695369673a20616c7265616479206f776e657200000000000000000060448201526064016103bd565b6001600160a01b0381166000818152600160208190526040808320805460ff191683179055825491820183558280527f290decd9548b62a8d60345a988386fc84ba6bc95484008f6362f93160ef3e56390910180546001600160a01b03191684179055517f994a936646fe87ffe4f1e469d3d6aa417d6b855598397f323de5b449f765f0c39190a250565b60038181548110610a3357600080fd5b60009182526020909120600590910201805460018201546002830180546001600160a01b039093169450909291610a699061145a565b80601f0160208091040260200160405190810160405280929190818152602001828054610a959061145a565b8015610ae25780601f10610ab757610100808354040283529160200191610ae2565b820191906000526020600020905b815481529060010190602001808311610ac557829003601f168201915b505050506003830154600490930154919260ff1691905085565b60606000805480602002602001604051908101604052809291908181526020018280548015610b5457602002820191906000526020600020905b81546001600160a01b03168152600190910190602001808311610b36575b5050505050905090565b333014610b7d5760405162461bcd60e51b81526004016103bd90611323565b600081118015610b8f57506000548111155b610bdb5760405162461bcd60e51b815260206004820152601d60248201527f4d756c74695369673a20696e76616c696420726571756972656d656e7400000060448201526064016103bd565b60028190556040518181527facbdb084c721332ac59f9b8e392196c9eb0e4932862da8eb9beaf0dad4f550da9060200160405180910390a150565b3360009081526001602052604090205460ff16610c455760405162461bcd60e51b81526004016103bd906113b5565b60035481908110610c685760405162461bcd60e51b81526004016103bd906113ec565b8160038181548110610c7c57610c7c611389565b600091825260209091206003600590920201015460ff1615610cb05760405162461bcd60e51b81526004016103bd90611423565b6000838152600460209081526040808320338452909152902054839060ff1615610d2d5760405162461bcd60e51b815260206004820152602860248201527f4d756c74695369673a20747820616c726561647920636f6e6669726d656420626044820152673c9031b0b63632b960c11b60648201526084016103bd565b600060038581548110610d4257610d42611389565b6000918252602080832088845260048083526040808620338752909352918420805460ff191660019081179091556005909302019081018054919450919290610d8c908490611494565b9091555050604051339086907f15c2f311c9e0f53b50388279894aeff029a3457884a6601e924fca879e12adcc90600090a35050505050565b3360009081526001602052604081205460ff16610df45760405162461bcd60e51b81526004016103bd906113b5565b600380549050905060036040518060a00160405280876001600160a01b0316815260200186815260200185858080601f01602080910402602001604051908101604052809392919081815260200183838082843760009201829052509385525050506020808301829052604092830182905284546001808201875595835291819020845160059093020180546001600160a01b0319166001600160a01b03909316929092178255830151938101939093558101519091906002820190610eba908261150e565b50606082015160038201805460ff19169115159190911790556080909101516004909101556040516001600160a01b03861690339083907f2ecf8c4571be1f8a0b1e6feaa711128f3f8038e97869aa59d0f595e21f50eaa090610f22908990899089906115ce565b60405180910390a4949350505050565b3360009081526001602052604090205460ff16610f615760405162461bcd60e51b81526004016103bd906113b5565b60035481908110610f845760405162461bcd60e51b81526004016103bd906113ec565b8160038181548110610f9857610f98611389565b600091825260209091206003600590920201015460ff1615610fcc5760405162461bcd60e51b81526004016103bd90611423565b600060038481548110610fe157610fe1611389565b90600052602060002090600502019050600254816004015410156110525760405162461bcd60e51b815260206004820152602260248201527f4d756c74695369673a206e6f7420656e6f75676820636f6e6669726d6174696f6044820152616e7360f01b60648201526084016103bd565b60038101805460ff191660019081179091558154908201546040516000926001600160a01b03169190611089906002860190611604565b60006040518083038185875af1925050503d80600081146110c6576040519150601f19603f3d011682016040523d82523d6000602084013e6110cb565b606091505b505090508061111c5760405162461bcd60e51b815260206004820152601d60248201527f4d756c74695369673a20747820657865637574696f6e206661696c656400000060448201526064016103bd565b604051339086907fefc13bdcf58f184ea7cae26b499fb33b539e01d0197cea456f3ada289b8cf19b90600090a35050505050565b60006020828403121561116257600080fd5b5035919050565b80356001600160a01b038116811461118057600080fd5b919050565b60006020828403121561119757600080fd5b6111a082611169565b9392505050565b60018060a01b03861681526000602086602084015260a0604084015285518060a085015260005b818110156111ea5787810183015185820160c0015282016111ce565b50600060c0828601015260c0601f19601f83011685010192505050611213606083018515159052565b8260808301529695505050505050565b6000806040838503121561123657600080fd5b8235915061124660208401611169565b90509250929050565b6020808252825182820181905260009190848201906040850190845b818110156112905783516001600160a01b03168352928401929184019160010161126b565b50909695505050505050565b600080600080606085870312156112b257600080fd5b6112bb85611169565b935060208501359250604085013567ffffffffffffffff808211156112df57600080fd5b818701915087601f8301126112f357600080fd5b81358181111561130257600080fd5b88602082850101111561131457600080fd5b95989497505060200194505050565b6020808252601e908201527f4d756c74695369673a2063616c6c6572206973206e6f742077616c6c65740000604082015260600190565b634e487b7160e01b600052601160045260246000fd5b818103818111156113835761138361135a565b92915050565b634e487b7160e01b600052603260045260246000fd5b634e487b7160e01b600052603160045260246000fd5b6020808252601d908201527f4d756c74695369673a2063616c6c6572206973206e6f74206f776e6572000000604082015260600190565b6020808252601b908201527f4d756c74695369673a20747820646f6573206e6f742065786973740000000000604082015260600190565b6020808252601d908201527f4d756c74695369673a20747820616c7265616479206578656375746564000000604082015260600190565b600181811c9082168061146e57607f821691505b60208210810361148e57634e487b7160e01b600052602260045260246000fd5b50919050565b808201808211156113835761138361135a565b634e487b7160e01b600052604160045260246000fd5b601f821115611509576000816000526020600020601f850160051c810160208610156114e65750805b601f850160051c820191505b81811015611505578281556001016114f2565b5050505b505050565b815167ffffffffffffffff811115611528576115286114a7565b61153c81611536845461145a565b846114bd565b602080601f83116001811461157157600084156115595750858301515b600019600386901b1c1916600185901b178555611505565b600085815260208120601f198616915b828110156115a057888601518255948401946001909101908401611581565b50858210156115be5787850151600019600388901b60f8161c191681555b5050505050600190811b01905550565b83815260406020820152816040820152818360608301376000818301606090810191909152601f909201601f1916010192915050565b60008083546116128161145a565b6001828116801561162a576001811461163f5761166e565b60ff198416875282151583028701945061166e565b8760005260208060002060005b858110156116655781548a82015290840190820161164c565b50505082870194505b5092969550505050505056fea2646970667358221220d877386131b6d1f79963ed4f8630d6fd577fc46451c16e4bc62aab51808a6b0c64736f6c63430008180033",
  "linkReferences": {},
  "deployedLinkReferences": {}
}